:020000040000fa
:080000000004040000000000f0
:020000040000fa
:04000800e004000010
:020000040000fa
:04000c00e00400000c
:020000040000fa
:04001000e004000008
:020000040000fa
:04001400e004000004
:020000040000fa
:04001800e004000000
:020000040000fa
:04001c00e0040000fc
:020000040000fa
:04002000e0040000f8
:020000040000fa
:04002400e0040000f4
:020000040000fa
:04002800e0040000f0
:020000040000fa
:04002c00e0040000ec
:020000040000fa
:04003000e0040000e8
:020000040000fa
:04003400e0040000e4
:020000040000fa
:04003800e0040000e0
:020000040000fa
:04003c00e0040000dc
:020000040000fa
:04004000e0040000d8
:020000040000fa
:04004400e0040000d4
:020000040000fa
:04004800e0040000d0
:020000040000fa
:04004c00e0040000cc
:020000040000fa
:04005000e0040000c8
:020000040000fa
:04005400e0040000c4
:020000040000fa
:04005800e0040000c0
:020000040000fa
:04005c00e0040000bc
:020000040000fa
:04006000e0040000b8
:020000040000fa
:04006400e0040000b4
:020000040000fa
:04006800e0040000b0
:020000040000fa
:04006c00e0040000ac
:020000040000fa
:04007000e0040000a8
:020000040000fa
:04007400e0040000a4
:020000040000fa
:04007800e0040000a0
:020000040000fa
:04007c00e00400009c
:020000040000fa
:04008000e004000098
:020000040000fa
:04008400e004000094
:020000040000fa
:04008800e004000090
:020000040000fa
:04008c00e00400008c
:020000040000fa
:04009000e004000088
:020000040000fa
:04009400e004000084
:020000040000fa
:04009800e004000080
:020000040000fa
:04009c00e00400007c
:020000040000fa
:0400a000e004000078
:020000040000fa
:0400a400e004000074
:020000040000fa
:0400a800e004000070
:020000040000fa
:0400ac00e00400006c
:020000040000fa
:0400b000e004000068
:020000040000fa
:0400b400e004000064
:020000040000fa
:0400b800e004000060
:020000040000fa
:0400bc00e00400005c
:020000040000fa
:0400c000e004000058
:020000040000fa
:0400c400e004000054
:020000040000fa
:0400c800e004000050
:020000040000fa
:0400cc00e00400004c
:020000040000fa
:0400d000e004000048
:020000040000fa
:0400d400e004000044
:020000040000fa
:0400d800e004000040
:020000040000fa
:0400dc00e00400003c
:020000040000fa
:0400e000e004000038
:020000040000fa
:0400e400e004000034
:020000040000fa
:0400e800e004000030
:020000040000fa
:0400ec00e00400002c
:020000040000fa
:0400f000e004000028
:020000040000fa
:0400f400e004000024
:020000040000fa
:0400f800e004000020
:020000040000fa
:0400fc00e00400001c
:020000040000fa
:04010000e004000017
:020000040000fa
:04010400e004000013
:020000040000fa
:04010800e00400000f
:020000040000fa
:04010c00e00400000b
:020000040000fa
:04011000e004000007
:020000040000fa
:04011400e004000003
:020000040000fa
:04011800e0040000ff
:020000040000fa
:04011c00e0040000fb
:020000040000fa
:04012000e0040000f7
:020000040000fa
:04012400e0040000f3
:020000040000fa
:04012800e0040000ef
:020000040000fa
:04012c00e0040000eb
:020000040000fa
:04013000e0040000e7
:020000040000fa
:04013400e0040000e3
:020000040000fa
:04013800e0040000df
:020000040000fa
:04013c00e0040000db
:020000040000fa
:04014000e0040000d7
:020000040000fa
:04014400e0040000d3
:020000040000fa
:04014800e0040000cf
:020000040000fa
:04014c00e0040000cb
:020000040000fa
:04015000e0040000c7
:020000040000fa
:04015400e0040000c3
:020000040000fa
:04015800e0040000bf
:020000040000fa
:04015c00e0040000bb
:020000040000fa
:04016000e0040000b7
:020000040000fa
:04016400e0040000b3
:020000040000fa
:04016800e0040000af
:020000040000fa
:04016c00e0040000ab
:020000040000fa
:04017000e0040000a7
:020000040000fa
:04017400e0040000a3
:020000040000fa
:04017800e00400009f
:020000040000fa
:04017c00e00400009b
:020000040000fa
:04018000e004000097
:020000040000fa
:04018400e004000093
:020000040000fa
:04018800e00400008f
:020000040000fa
:04018c00e00400008b
:020000040000fa
:04019000e004000087
:020000040000fa
:04019400e004000083
:020000040000fa
:04019800e00400007f
:020000040000fa
:04019c00e00400007b
:020000040000fa
:04020800e00400000e
:020000040000fa
:04020c00e00400000a
:020000040000fa
:04021000e004000006
:020000040000fa
:04021400e004000002
:020000040000fa
:04021800e0040000fe
:020000040000fa
:04021c00e0040000fa
:020000040000fa
:04022000e0040000f6
:020000040000fa
:04022400e0040000f2
:020000040000fa
:04022800e0040000ee
:020000040000fa
:04022c00e0040000ea
:020000040000fa
:04023000e0040000e6
:020000040000fa
:04023400e0040000e2
:020000040000fa
:04023800e0040000de
:020000040000fa
:04023c00e0040000da
:020000040000fa
:04024000e0040000d6
:020000040000fa
:04024400e0040000d2
:020000040000fa
:04024800e0040000ce
:020000040000fa
:04024c00e0040000ca
:020000040000fa
:04025000e0040000c6
:020000040000fa
:04025400e0040000c2
:020000040000fa
:04025800e0040000be
:020000040000fa
:04025c00e0040000ba
:020000040000fa
:04026000e0040000b6
:020000040000fa
:04026400e0040000b2
:020000040000fa
:04026800e0040000ae
:020000040000fa
:04026c00e0040000aa
:020000040000fa
:04027000e0040000a6
:020000040000fa
:04027400e0040000a2
:020000040000fa
:04027800e00400009e
:020000040000fa
:04027c00e00400009a
:020000040000fa
:04028000e004000096
:020000040000fa
:04028400e004000092
:020000040000fa
:04028800e00400008e
:020000040000fa
:04028c00e00400008a
:020000040000fa
:04029000e004000086
:020000040000fa
:04029400e004000082
:020000040000fa
:04029800e00400007e
:020000040000fa
:04029c00e00400007a
:020000040000fa
:0402a000e004000076
:020000040000fa
:0402a400e004000072
:020000040000fa
:0402a800e00400006e
:020000040000fa
:0402ac00e00400006a
:020000040000fa
:0402b000e004000066
:020000040000fa
:0402b400e004000062
:020000040000fa
:0402b800e00400005e
:020000040000fa
:0402bc00e00400005a
:020000040000fa
:0402c000e004000056
:020000040000fa
:0402c400e004000052
:020000040000fa
:0402c800e00400004e
:020000040000fa
:0402cc00e00400004a
:020000040000fa
:0402d000e004000046
:020000040000fa
:0402d400e004000042
:020000040000fa
:0402d800e00400003e
:020000040000fa
:0402dc00e00400003a
:020000040000fa
:0402e000e004000036
:020000040000fa
:0402e400e004000032
:020000040000fa
:0402e800e00400002e
:020000040000fa
:0402ec00e00400002a
:020000040000fa
:0402f000e004000026
:020000040000fa
:0402f400e004000022
:020000040000fa
:0402f800e00400001e
:020000040000fa
:0402fc00e00400001a
:020000040000fa
:04030000e004000015
:020000040000fa
:04030400e004000011
:020000040000fa
:04030800e00400000d
:020000040000fa
:04030c00e004000009
:020000040000fa
:04031000e004000005
:020000040000fa
:04031400e004000001
:020000040000fa
:04031800e0040000fd
:020000040000fa
:04031c00e0040000f9
:020000040000fa
:04032000e0040000f5
:020000040000fa
:04032400e0040000f1
:020000040000fa
:04032800e0040000ed
:020000040000fa
:04032c00e0040000e9
:020000040000fa
:04033000e0040000e5
:020000040000fa
:04033400e0040000e1
:020000040000fa
:04033800e0040000dd
:020000040000fa
:04033c00e0040000d9
:020000040000fa
:04034000e0040000d5
:020000040000fa
:04034400e0040000d1
:020000040000fa
:04034800e0040000cd
:020000040000fa
:04034c00e0040000c9
:020000040000fa
:04035000e0040000c5
:020000040000fa
:04035400e0040000c1
:020000040000fa
:04035800e0040000bd
:020000040000fa
:04035c00e0040000b9
:020000040000fa
:04036000e0040000b5
:020000040000fa
:04036400e0040000b1
:020000040000fa
:04036800e0040000ad
:020000040000fa
:04036c00e0040000a9
:020000040000fa
:04037000e0040000a5
:020000040000fa
:04037400e0040000a1
:020000040000fa
:04037800e00400009d
:020000040000fa
:04037c00e004000099
:020000040000fa
:04038000e004000095
:020000040000fa
:04038400e004000091
:020000040000fa
:04038800e00400008d
:020000040000fa
:04038c00e004000089
:020000040000fa
:04039000e004000085
:020000040000fa
:04039400e004000081
:020000040000fa
:04039800e00400007d
:020000040000fa
:04039c00e004000079
:020000040000fa
:100800002f002200ae7e24000e01880000000000b0
:10081000000020000000e000020032000001200083
:100820002002880014000700670007000000e000b5
:1008300003003a00a06521000100200002003700fb
:100840000000200001002000810f70000100320034
:1008500014000700000020000000e0000200320049
:1008600000000200000000008015020000000000ef
:100870000040da000000fe004440a900c00520004e
:100880000000e0000300320000002000a00188000a
:100890004440a800000006008a1f78008b1f7800e3
:1008a0000000060091018800800478000000eb0041
:1008b0001a003700e284440032a0b4009905ba005f
:1008c000e284440032a0b4009906ba00e2844400f5
:1008d00032a0b4000006eb00476fde00fd07b20057
:1008e000636ce10003003a00ebff07000000eb003f
:1008f0000a003700606ce10004003a00005deb0084
:100900008b05e900fdff3e00040037006168e1004f
:10091000010032000086eb000b00070019c7ba0087
:100920001905ba000e04e00003003a000a00e000d6
:10093000e0ff3a0000000600fe07b2009e018800ba
:100940008a047800f5ff3700395dba008b05e900ad
:100950000c003200295dba008b05e9000800320066
:100960000c00e00003003a00e284440032a0b4002e
:10097000f5ff370019ddba008b05e900faff3a00f0
:100980008904e800e184440032a0b40000000600bd
:10099000cc12040000000000a013040000000000be
:1009a000dc13040000000000d0130400000000006d
:1009b000120e0400000000002e0e040000000000d3
:1009c0000040da000000fe00000005008001780011
:1009d00002003700b15978000201e9000200e0008e
:0809e000fcff3a0000000600d4
:020000040000fa
:1009e80012010000100100000200000000080000d1
:1009f800d8040000fffa0000020000000102000015
:100a08000301000009020000430000000201000089
:100a180000800000640900000400000000010000dc
:100a28000202000001000000052400000010000080
:100a38000104000024020000020500002406000052
:100a4800000100000524000001010000010700006a
:100a580005810000030a00000040000009040000ae
:100a680001000000020a000000000000000700006a
:100a780005020000024000000040000007050000d9
:100a88008202000040000000400000004e4f0000bd
:080a9800454d00005300000071
:020000040000fa
:100aa0000a00fa0010079800210798003207980002
:100ab000430798009e00900001408800ae0090001f
:100ac00011408800be00900021408800ce009000b8
:100ad000314088009624ef009424a8009424a900b3
:100ae0009ec0a9008c24ef00f00f20007024880025
:100af000f00f200050248800a624ef00a824ef0067
:100b000000a020004800de00c0248800000820006b
:100b1000302488008804a8000828ef000a28ef0085
:100b20000c28ef000000eb00000f78000d003700ec
:100b30001e007800c200dd00e0c4200000804000fc
:100b40008000eb00010878001e007800c200dd0084
:100b5000c0c42000008040008000eb000108780045
:100b60001e0fe8001e007800ef0f5000f0ff360067
:100b70008000eb000000eb00d40307008000eb00d6
:100b80000000eb00dc030700d000200050258800a7
:100b90000e28ef001268ef001028ef001368ef0036
:100ba00000a0200081c0b3000148780080a120008f
:100bb0001050880010a0200081c8b30001487800c0
:100bc00040a020008040eb000148780000a22000f7
:100bd0003050880050a0200001c4b30001487800c4
:100be0000080fa00000006000000fa000100370053
:100bf0009404a800a0248000610060000000e000d0
:100c0000fbff320000000000a1248000000420004f
:100c1000008060000000e000fbff3a00cd42a90028
:100c20000080fa00000006000000fa005024800056
:100c3000610060000000e00004003200390007009d
:100c400010002000502488002f003700502480001e
:100c5000620060000000e000040032002c00070089
:100c600020002000502488002700370051248000f5
:100c700000022000008060000000e000030032005d
:100c800000022000502488001f00370050248000fc
:100c9000700060000000e00003003200000120004e
:100ca00050248800180037005124800000082000dc
:100cb000008060000000e000030032000008200017
:100cc0005024880010003700502480006400600029
:100cd0000000e0000700320040002000502488009f
:100ce00009003700630007008000200050248800be
:100cf0000100370000000000502480006800600000
:100d00000000e000f7ff3a000080fa000000060053
:100d10000000fa00f00f2000702488000080fa0024
:100d2000000006000200fa00601680004800de00a5
:100d30006140600080407800601680004800de005e
:100d40006140600000c06800614060000080fb00fe
:100d5000610060004800dd0062168000f1ef2f00a6
:100d60008100610001007000601688000e28ef000d
:100d700080002000502488001028ef001268ef0047
:100d80001368ef0050248000680060000000e0005d
:100d9000f7ff3a00aa24ef00ac24ef00ae24ef00e6
:100da000b024ef00b224ef00b424ef00b624ef002b
:100db000b824ef00ba24ef00bc24ef00be24ef00fb
:100dc000c024ef00c224ef00c424ef00c624ef00cb
:100dd000c824ef009624ef00f00f20005024880074
:100de000f00f2000702488000000eb00000f780056
:100df000080037001e007800c200dd0000a02000bf
:100e0000008040008040eb00114098009e00780078
:100e1000648f40001e007800e50f5000f5ff36009b
:100e2000d00020005025880000a0200081c0b30021
:100e30000148780080a120001050880010a02000f8
:100e400081c8b3000148780040a020008040eb003a
:100e50000148780000a220003050880050a02000f7
:100e600001c4b3000148780094a4a9000080fa00ee
:100e7000000006000000fa00601680004a00de0054
:100e80006140600080407800601680004a00de000b
:100e90006140600000c06800614060000080fb00ad
:100ea000610060004a00dd0062168000f1bf2f0083
:100eb00081006100010070006016880090248000ad
:100ec0000040780014e8b70014c8bf000080fb00a1
:100ed0004300de00004078000080fb00c200dd001f
:100ee00000a0200000804000b040880014c8bf006f
:100ef0000034a0000080fb004300de0000407800ca
:100f00000080fb00c200dd0000a020000080400047
:100f1000c0408800b0408000104090008080fb00fe
:100f2000c00320000080600041022000810f5000bb
:100f30000a00320041032000810f500003003200fc
:100f4000e40f5000030032000600370007000700de
:100f500004003700af0207000200370093020700c9
:100f6000000000000080fa00000006000000fa0007
:100f7000c040800081c0b30011409800b0408000a4
:100f800010009000104078008080fb0000062000d8
:100f90000080600001022000810f50001c00320020
:100fa00001042000810f50001f0032000000e0000b
:100fb00023003a00b04080001000900010407800fc
:100fc0000080fb0063006000e10f5000070032006a
:100fd000e20f5000080032000000e00009003a0073
:100fe000b04080003700070008003700b0408000a4
:100ff0007101070005003700b0408000ad01070017
:1010000002003700f202070012003700110037001b
:10101000504080000000e0000b0032005040800093
:10102000000001000b003700604080000000e0007d
:10103000070032005040800000000100050037002a
:10104000e302070003003700000000000100370042
:1010500000000000b040800081c0b300014878006b
:10106000b1408000b0408000100090001040780037
:101070000004e0000e003500b04080001000900039
:1010800066004000104078000004e00006003a00ce
:10109000b0408000100090006700400010407800d1
:1010a0000004e0000200320080ccb30001003700f1
:1010b00080c8b3009040980094a4a9000080fa0072
:1010c000000006000600fa00200798002e0090009d
:1010d00090009000110798001e0090000000e800aa
:1010e000104078000080fb00e50f50003d0032000a
:1010f000e50f500007003c00e10f50001c003200db
:10110000e30f5000290032000000e0000800320028
:1011100026013700e80f500002013200e90f5000ad
:1011200009013200e60f5000450032001f01370070
:10113000c040800010009000714080008140780025
:1011400001487800c0408000100090000000e800d6
:1011500071408000c808de008140780001487800b6
:10116000c0408000210020008d02070010013700e0
:101170001e0090000080e80010407800e14f500011
:1011800008003a0071408000d0ff2f00008060000e
:1011900070408800c04080008000eb0080020700a3
:1011a000030137008a020700010137001e0090008a
:1011b0000080e80010407800e14f500007003a003e
:1011c000704080000010a00070408800c040800087
:1011d0008000eb0072020700f50037007c02070078
:1011e000f30037001e0090006300400010407800bc
:1011f0000004e00010003a001e0090000080e800ab
:10120000104078000004e0000b0035001e00900044
:101210000080e8001040780013e8b700c04080006c
:101220008000eb005e02070021e120000000eb00df
:1012300026020700de00370065020700dc003700e9
:101240001e00900063004000104078000080fb000a
:10125000e20f50001c003200e30f50006d0032001e
:10126000e10f50009d003a0000408000d04088000f
:1012700000408000104078000080fb00e0408800c3
:101280001e00900067004000104078000004e0005d
:1012900094003a001e0090006600400090407800e4
:1012a000d04080001040780080cf50008f00310087
:1012b0001e00900066004000104078000080fb0097
:1012c000e0408800920037001e0090000080e80097
:1012d000904078000040800071004000104078008d
:1012e00080cf500001003900390207001040800013
:1012f000d0408800d04080000080e8001040780096
:101300008080fb00d04080006300400010407800e7
:101310000080fb004800dd0000804000e0408800c5
:101320000000eb00000f780010003700d140800073
:10133000e040800000804000d0408800d040800025
:101340000080e800104078008080fb00d0408000e2
:1013500063004000104078000080fb004800dd0082
:1013600000804000e04088001e0fe8001e00900052
:101370000080e800104078000080fb009e0f5000c5
:10138000eaff3c001e00900067004000904078009b
:10139000d0408000630040001040780080cf5000b3
:1013a000100039001e009000670040009040780057
:1013b000d0408000630040001040780080cf500093
:1013c0004c003a001e0090006600400090407800fb
:1013d000d04080000080e8001040780080cf5000ae
:1013e000460031001e00900066004000104078006a
:1013f0008080fb001e0090006700400010407800d5
:101400000080fb004800dd0000804000e0408800d4
:101410003f0037001e0090000080e8001040780078
:101420008080fb0030408000808f5000010035003c
:10143000e701070020408000d0408800d0408000b5
:10144000104078000080fb00e04088000000eb00c6
:10145000000f780009003700d1408000e040800094
:1014600000804000d0408800d040800010407800cc
:101470000080fb00e04088001e0fe8001e00900086
:101480000080e800104078000080fb009e0f5000b4
:10149000f1ff3c001e009000670040001040780003
:1014a0000004e00017003a001e00900066004000b3
:1014b00090407800d04080001040780080cf5000ed
:1014c000120031001e0090006600400010407800bd
:1014d0000080fb00e04088000d003700bc010700e1
:1014e0000b0037000000000009003700000000007a
:1014f0000700370000000000050037000000000072
:101500000300370000000000010037000000000069
:10151000d2010700e1e220000000eb006b010700b0
:1015200023003700c0408000100090008140800000
:101530008140780001487800c04080001100200000
:10154000970107001a0037001e0090000080e80095
:1015500010407800e14f500012003e001e00900045
:101560000080e800104078000080fb008040880088
:10157000804080000000e0000400320000c2b300a0
:1015800012e8b700d60307000200370000c1b3001d
:1015900012e8b700c04080008000eb008001070027
:1015a000030037008a0107000100370088010700a7
:1015b0000080fa00000006000400fa0010079800fe
:1015c0001e00900090009000010f78001e00e800bf
:1015d000104078000080fb000000e00007003200af
:1015e0000000e00030003500ea0f5000100032002b
:1015f000eb0f50001d0032002b003700c040800070
:10160000100090008040eb0001487800c04080004e
:10161000100090000000e8008040eb0001487800d6
:10162000c0408000210020005d0107001f0037003e
:101630009e0078006480400010407800e14f500028
:1016400008003e00c0408000100090008040eb0089
:1016500001487800c04080001100200050010700c0
:10166000120037005a010700100037009e00780072
:101670006480400010407800e14f500008003e00b8
:101680001e80e800104078000004e00004003a00ea
:10169000c04080008000eb004101070003003700dc
:1016a0004b01070001003700490107000080fa00e4
:1016b000000006000800fa00300798003e00900085
:1016c00090009000010f78001e00e80010407800a4
:1016d0000080fb00e10f50004e003200e30f50008d
:1016e0007e0032000000e000ad003a00c040800003
:1016f000100090008040eb0001487800c04080005e
:10170000100090000000e8008040eb0001487800e5
:101710009e00780064804000104078006f406000b8
:10172000204798009e0078006480400010407800b8
:101730000080fb004700de00304798002e409000fc
:101740000080fb0000004000800078003e409000d8
:101750000080fb0000804000c200dd0000a02000ef
:1017600000804000200798002e00900090409000dc
:10177000b0cfb30080c060002e00900011409800f0
:101780002e009000104090000004e00004003200a1
:10179000c04080001000900011c0b30001487800e4
:1017a0002e4090000080fb00000040008000780088
:1017b0003e4090000080fb0000804000c200dd0041
:1017c00000a0200000804000200798002e0090001c
:1017d00090409000b0cfb30080c060002e00900019
:1017e000114098002e009000104090000004e0008e
:1017f00004003200c04080001000900011c0b3000f
:1018000001487800c040800021002000e40007006b
:10181000640037009e00780064804000104078002b
:101820006f406000204798009e0078006480400070
:10183000104078000080fb004700de003047980031
:101840002e4090000080fb000000400080007800e7
:101850003e4090000080fb0000804000c200dd00a0
:1018600000a0200000804000200798002e0090007b
:1018700090409000b0cfb30080c060002e00900078
:10188000114098003e4090000004e0000600320045
:101890002e00900010409000804078000164a0006d
:1018a0002e009000114098003e4090000004e0009f
:1018b00006003a002e00900090409000f0cbb3005c
:1018c00080c060002e00900011409800c040800051
:1018d0008000eb00b2000700320037009e00780065
:1018e00064804000104078006f40600020479800fe
:1018f0009e00780064804000104078000080fb006b
:101900004700de00304798002e4090000080fb002a
:1019100000004000800078003e4090000080fb0006
:1019200000804000c200dd0000a0200000804000d8
:10193000200798002e009000104090008040780012
:101940000124a0002e009000114098002e4090002d
:101950000080fb0000004000800078003e409000c6
:101960000080fb0000804000c200dd0000a02000dd
:1019700000804000200798002e009000104090004a
:10198000804078000124a0002e00900011409800b3
:10199000c04080008000eb0081000700010037009c
:1019a0008b0007000080fa00000006000000fa002b
:1019b00014c8bf000080fb004400de000040780037
:1019c0000080fb006f006000c200dd00c0c420008a
:1019d00000804000100078000000e0000b003200a2
:1019e00014c8bf000080fb004400de000040780007
:1019f0000080fb006f006000c200dd00c0c420005a
:101a00000080400010007800000001000080fa0013
:101a1000000006000000fa0014c8bf000080fb00b0
:101a20004400de00004078000080fb006f00600092
:101a30004200dd008080e800c0c42000008040003b
:101a4000100078000000e0000c00320014c8bf0055
:101a50000080fb004400de00004078000080fb00b6
:101a60006f0060004200dd008080e800c0c42000fc
:101a70000080400010007800000001000080fa00a3
:101a8000000006000200fa00000f78009e007800b7
:101a9000414088000080fa00000006000200fa00c1
:101aa000000f78009e007800514088000080fa0006
:101ab000000006000200fa00000f78009e00780087
:101ac000614088000080fa00000006000400fa006f
:101ad000000f7800110798001e007800c200dd009a
:101ae000c0c42000008040009e00900001087800e3
:101af0000080fa00000006000400fa00000f7800e1
:101b0000110798001e007800c200dd00e0c420002c
:101b1000008040009e009000010878000080fa00dc
:101b2000000006000200fa00000f78001e00780096
:101b30001040900000c0ea0002c4b3008240600080
:101b400080c8b30000c07000804078001e0078009c
:101b5000114098000080fa00000006000200fa0020
:101b6000000f78001e0078008040eb0001487800ec
:101b70001e0078001040900000c0ea0002c4b300cc
:101b80008240600080c8b30000c0700080407800d0
:101b90001e007800114098000080fa000000060046
:101ba0000400fa00000f7800110798001e00900052
:101bb000804078001e007800014878001e00780000
:101bc00081ccb300114098000080fa0000000600ac
:101bd0000000fa0000a0200081c0b3000148780096
:101be00000a0200081c0b3000148780050a0200070
:101bf00041c8b3000148780010a0200041c8b300dc
:101c00000148780050a0200041c8b3000148780086
:101c100010a0200041c8b300014878000080fa00fd
:101c2000000006000000fa0013c8bf000004e00036
:101c30000500350013c8bf000080fb00b0248800f9
:101c400000c0eb0013e8b7008000eb000000eb00e1
:101c50009eff07000080fa00000006000400fa0062
:101c6000e04080000000e00015003200e04080000d
:101c7000e80f500001003600800020001007980097
:101c80000000eb00000f780008003700c040800023
:101c9000100090001e004000d14080009e80400057
:101ca00091407800014878001e0fe8001e00900067
:101cb0009e007800808f5000f4ff39000500370047
:101cc0000000eb00100798008000eb000000eb0024
:101cd0007eff0700c04080009e0090008140780099
:101ce00001487800c0408000c140800091409000d1
:101cf00081c0ea0003c4b30003c1600081c8b3001f
:101d00008140710011409800d14080001e00900079
:101d100000804000d0408800e14080001e0090001c
:101d200000805000e04088000080fa0000000600bb
:101d30000000fa00710480000004200000806000b0
:101d40000000e000200032005024800061006000ac
:101d50000000e00005003200f2fb07001000200048
:101d60005024880000c0eb00180037005024800089
:101d7000680060000000e000120032009024800043
:101d80000040780014e8b70014c8bf000080fb00d2
:101d90004400de00004078000080fb006f0060001f
:101da0000000e0000500320032fc07008000200047
:101db0005024880000c0eb000400370080002000a1
:101dc000502488008ec0a9000040eb000080fa007b
:101dd000000006000600fa00e08320008040eb00cf
:101de0000148780090fb070019030700608320007a
:101df000270307000004e000faff3200618320009f
:101e00009140780010ccb30080cf5000f5ff3a002d
:101e10008d0207006094200011cfb30001487800c4
:101e20007094200041c0b3000148780080942000e5
:101e3000a1c0b3000148780031c0b3006094200015
:101e400094020700f0832000b1c4b3000148780079
:101e500075fb07007c020700f083200090407800ab
:101e6000609420000148780011c0b3006094200005
:101e7000880207000040eb00004f7800008420003b
:101e80000303070000842000104078001e4f40002c
:101e900010842000fe02070010842000104078000b
:101ea0001e4f400020842000f902070020842000fb
:101eb000104078001e4f400030842000f4020700dc
:101ec00030842000104078001e4f400040842000e5
:101ed000ef02070040842000104078001e4f4000b1
:101ee000008420001040780032e0b70040842000d9
:101ef00010407800e14f5000180036000000eb0061
:101f0000100798000d0037009e00900060842000ac
:101f100000804000de0207001e009000e800400044
:101f2000e083200000804000104078001e4f4000f9
:101f30001e0090000000e800100798004084200078
:101f4000104078000080fb000000e900800078006d
:101f50001e009000808f5000ebff3e005084200058
:101f6000cb02070050842000104078001e4f400034
:101f70001e4078000004e00004003200f0832000de
:101f8000e1c4b30001487800b1ff370000842000ad
:101f9000104078000080fb008000eb00c04188000a
:101fa000d1418800c2418000d34180004818dd0043
:101fb000c810de00810070004810dd00c0418800bc
:101fc000d141880010842000104078000081fb007f
:101fd0008001eb00c0418000d14180000200400040
:101fe00083804800c0418800d1418800c241800000
:101ff000d34180004818dd00c810de008100700069
:102000004810dd00c0418800d141880020842000b4
:10201000104078000081fb008001eb00c04180008f
:10202000d14180000200400083804800c041880008
:10203000d141880030842000104078000080fb00ef
:10204000e20f500009003200f10f2000810f500014
:1020500008003200e10f500024003a00e083200025
:1020600011c0b300014878002400370028000700a1
:10207000220037009404a9000080eb00200798009c
:102080000e0037000080eb001007980000000000f1
:102090001e0090008000780001f0a7008100ea0097
:1020a0008100ea00cf08de00814078000000e900ee
:1020b000100798000104e000f5ff3a002e009000a0
:1020c0008000780001f0a7008100ea008100ea00aa
:1020d000cf08de00814078000000e900200798006a
:1020e0000104e000e7ff3a000000fe00f08320005a
:1020f00051c5b30001487800000000003cc8bf0093
:102100000004e00052ff32000080fa0000000600e8
:102110000800fa000040eb0040479800c0418000f2
:10212000d1418000e00f5000e08f580012003a00cb
:102130006084200041c0b300014878007084200012
:102140008040eb00014878008084200041c0b3004b
:1021500001487800908420008040eb00014878001e
:10216000a08420008040eb0001487800b08420006b
:102170008040eb0001487800c2418000d3418000dc
:10218000f0ff210001002000800f5100818f5900d5
:102190000c003c00c2418000d3418000f03f200091
:1021a00001002000800f5100818f5900050034008c
:1021b000f083200001c5b3000148780010c0b300cf
:1021c00040479800c2418000d3418000f07f2a0040
:1021d00021002000800f5100818f5900050034003c
:1021e000f083200001c5b3000148780010c0b3009f
:1021f000404798004e4090000004e000a1003a00e3
:10220000e0832000104078000004e0001700320056
:1022100020042400003b8800c0418000d1418000a0
:10222000000078008080eb000108bb005005200012
:10223000303b8800a00a2000303b880061e7a800fe
:10224000000000000000000000000000013b8000d2
:1022500000002800008060000000e000fbff3a0062
:10226000e08320008040eb0001487800c0418000fe
:10227000d14180001007980010002400003b880026
:102280000040eb00004f7800240037001e80fb0068
:10229000e8004000e083200000804000104078000b
:1022a0000080fb0030079800be0090001e009000e8
:1022b0000188bb001e4fe8001e80fb00e8004000c4
:1022c000e083200000804000104078000080fb0088
:1022d000300798001e4fe8001e80fb00e800400019
:1022e000e083200000804000104078000080fb0068
:1022f0004800dd00be00900001007000300798002b
:102300001e4fe800be0090001e0090000108bb00b8
:102310001e0090000080e800100798009e80fb00df
:1023200040842000104078000080fb000000e9009d
:10233000808f5000d5ff350050052000303b8800cd
:10234000a00a2000303b880061e7a80000000000e0
:102350000000000000000000013b80000000280099
:10236000008060000000e000fbff3a0061c7a900a8
:10237000c0418000d141800010079800f083200008
:10238000b1c4b300014878000040eb00004f780072
:10239000350037001e0090001080ba00300798000a
:1023a000be009000f00f2000008060003007980011
:1023b0001e80fb00e8004000e08320000080400019
:1023c000104078008080fb003e009000808f50001d
:1023d00003003200f083200061c5b300014878009b
:1023e0001e4fe8001e0090001000ba003007980051
:1023f0003e009000804078001e80fb006801400095
:10240000e0832000000041001040780080cf5000a1
:1024100003003200f083200061c5b300014878005a
:102420001e4fe8003e0090004880de0080407800ab
:102430001e80fb0068014000e08320000000410096
:102440001040780080cf500003003200f08320005d
:1024500061c5b300014878001e4fe8001e009000df
:102460000080e800100798009e80fb004084200058
:10247000104078000080fb000000e900808f5000d1
:10248000c4ff35000080fa00000006000000fa00da
:1024900000202c00110020000060880011608800de
:1024a0000000eb00206088000000eb003060880036
:1024b00080c0200081c0b300014878001e08a90038
:1024c0001e28a900c02c210074fd07002e28ef0053
:1024d00070418000604188000080fa000000060022
:1024e0000000fa008000eb001000200077fd0700dc
:1024f0008000eb002000200074fd07008000eb004e
:10250000200020007cfd070050012000602588008d
:10251000d001200070258800c0a020008040eb0082
:10252000014878006098200070508800d0a02000fa
:1025300081c4b3000148780000a1200001c4b300a9
:1025400001487800609020009050880010a1200081
:1025500081c8b3000148780040a120008040eb0012
:102560000148780060942000b050880050a12000fd
:1025700081c4b30001487800c02c210047fd07004a
:1025800000a120008041880040a1200090418800e7
:102590000080fa00000006000400fa0060168000c7
:1025a0004900de00614060008040780060168000d5
:1025b0004900de006140600000c0680061406000ca
:1025c0000080fb00610060004900dd0062168000b1
:1025d000f1df2f00810061000100700060168800ab
:1025e000b040800090009000110798001e009000fd
:1025f000104078008080fb00300620008080600062
:1026000010022000808f500044003a001e0090000d
:102610000000e800104078000080fb00e40f50004c
:1026200007003c00e20f500017003d000000e000f2
:102630000d003200e10f50000f003200340037006f
:1026400011022000810f50001500320021022000ed
:10265000810f50002300320001022000810f500042
:102660000b0032002a003700c04080008000eb00e1
:102670004bfd070028003700c04080008000eb00c1
:1026800047fd07002400370051fd070022003700f6
:10269000013a21000000eb0017fd07001e00370083
:1026a0001e00900066004000100f78001e007800a9
:1026b000ea0f500002003600a0002000000f780052
:1026c000c0408000100090001e01780001c0200072
:1026d000bef807009e007800c040800030fd070073
:1026e0000d0037001e0090000080e8009000780088
:1026f000f1408800c13d21000000eb00f3fc070021
:10270000c04080008000eb0025fd0700020037007c
:102710002ffd070002003700010037002cfd0700e5
:102720000080fa00000006000000fa008000eb00c4
:102730000000eb00e5fc07000080fa000000060046
:102740000000fa00b040800010009000a2002000bd
:102750008000780000c020009cf807008000eb009b
:102760000000eb00e4fc0700013d21000000eb004d
:10277000d6fc0700c04080008000eb0008fd070089
:10278000b040800081c0b30001487800b0408000b4
:1027900081c8b300114098000080fa0000000600d4
:1027a0000000fa008000eb000000eb00c7fc07000f
:1027b0000080fa00000006000000fa008000eb0034
:1027c0000000eb00c1fc07000080fa0000000600da
:1027d0000000fa00a04180000000e0000400320088
:1027e000a04180000000e900a041880001003700fe
:1027f000000000000080fa00000006000000fa005f
:102800000a003700f104800000042000008060000e
:102810000000e00005003a0045fd07000004e0006c
:10282000020032000040eb000500370080418000cc
:10283000104090000004e000f2ff350010c0b3002b
:102840000080fa00000006000000fa000a003700cd
:10285000f104800000042000008060000000e0001f
:1028600005003a0032fd07000004e00002003200db
:102870000040eb00050037009041800010409000c0
:102880000004e000f2ff350010c0b3000080fa0041
:10289000000006000400fa00000f780021479800ad
:1028a0000a003700f104800000042000008060006e
:1028b0000000e00005003a001dfd07000004e000f4
:1028c0000200320000c0eb0015003700904180008c
:1028d000104090000004e000f2ff350090418000bd
:1028e0009e0078001100980090418000ae41900059
:1028f0000348780090418000914180009140900011
:1029000081c0ea0003c4b30003c1600081c8b30002
:10291000814071001140980005fd07002e40900095
:102920000080fa00000006000000fa0080418000ec
:102930001040900000c0ea000080fb004700de006d
:10294000004078000080fa00000006000000fa0055
:10295000904180001040900000c0ea000080fb0021
:102960004700de00004078000080fa00000006000a
:102970000400fa00000f7800214798002168ef005a
:1029800080418000104090000004e0002d003500e0
:1029900080418000904078002e40900080cf500011
:1029a000030031008041800090407800214798006a
:1029b0002168ef000c00370021c8bf000080fb0039
:1029c0001e00400011822000914078008180fb00b1
:1029d00062902000e2c078000148780021c8bf0062
:1029e0000040e80021e8b700118220009140780003
:1029f0002e40900080cf5000efff3900f10480009e
:102a000000042000008060000000e00001003a00a7
:102a1000c7fc07008041800001c4b3000148780072
:102a200080418000814180009140900081c0ea0097
:102a300003c4b30003c1600081c8b30081407100ca
:102a40001140980021c8bf000080fa000000060075
:102a50000000fa00a0c42000104078000004e0004c
:102a600009003a0001c4b300a0c02000c0ff070065
:102a7000a1c42000804878006bf80700b0c4200093
:102a80008040eb00014878000080fa00000006005a
:102a90000200fa00000f7800edff0700a0c420003c
:102aa000104078000004e000fbff3200b0c42000ba
:102ab000104078008080fb00a0c020000080400013
:102ac000904078001e00780001487800a0c42000e3
:102ad000104078008040e900a0c420000148780040
:102ae000b0c42000104078008040e800b0c420004e
:102af0000148780010c0b3000080fa000000060012
:102b00000200fa000080eb0060198800c8e2a8000b
:102b10006f20a800ccc2a900c8c2a900e23f820071
:102b2000f33f82006092250011142300800f5100b2
:102b3000818f590005003a00a07f240010407800e2
:102b40000004a2000004e00021003200a07f240065
:102b50008040eb000148780080382100000f7800a9
:102b6000000000001e0078008000780001f0a7003f
:102b70008100ea008100ea00cf08de008140780091
:102b80000000e900000f78000104e000f5ff3a00c2
:102b90000000eb00000f78000a003700511680009b
:102ba00000082000008060000000e0000200320009
:102bb00001002200014001001e0078000000e80032
:102bc000000f78001e007800f30f5000f3ff340070
:102bd000a07f24008040eb00014878006f20a9000e
:102be000c8c2a800030007000000eb000080fa0044
:102bf000000006000000fa0016000700c902a90044
:102c0000c922a900c942a900cd42a800cd02a9004d
:102c1000cd22a80043002000029920006150280026
:102c2000404f28009ef70700eff7070017fe070048
:102c3000cd22a900fcf7070012c8bf00ff4f5000cb
:102c4000fcff3600cd22a80062fc07000080fa00dd
:102c5000000006000000fa004440a8003460ef00c5
:102c60004427ef003260ef000080eb00601988001d
:102c700020002000501988000080eb0040168800da
:102c80000080eb00801688000080eb00c0168800f2
:102c90000080eb00001788000080eb0040178800e0
:102ca0000080eb00801788004227a9000080fa000e
:042cb000000006001a
:020000040000fa
:102cb4003e080000c80000000000000036080000c4
:102cc40008000000000000000020000002000000d6
:102cd40000000000000c00004c0000000000000098
:102ce4001e08000018000000000000000609000093
:102cf4008a0000000000000090090000520000005b
:102d04000200000004030900042a030044006100d7
:102d1400006e000067006500007200006f0075001f
:102d24000073000020005000007200006f00740067
:102d3400006f0000740079000070000065007300eb
:102d4400001203004300440000430000200054002c
:102d540000650000730074000012030030003000ae
:102d6400003000003000300000300000300031003e
:102d7400000000004c0c00004000000000000000b7
:102d8400000800001e00000000000000000a00000f
:0c2d940000020000000000000000000031
:020000040000fa
:043fec000a040000c3
:020000040000fa
:020000040005f5
:0457f400ffff0000b3
:020000040000fa
:020000040005f5
:0457f8009e230000ec
:020000040000fa
:020000040005f5
:0457fc007f3e0000ec
:00000001FF
