:020000040000fa
:080000000002040000000000f2
:020000040000fa
:040008006e04000082
:020000040000fa
:04000c006e0400007e
:020000040000fa
:040010006e0400007a
:020000040000fa
:040014006e04000076
:020000040000fa
:040018006e04000072
:020000040000fa
:04001c006e0400006e
:020000040000fa
:040020006e0400006a
:020000040000fa
:040024006e04000066
:020000040000fa
:040028006e04000062
:020000040000fa
:04002c006e0400005e
:020000040000fa
:040030006e0400005a
:020000040000fa
:040034006e04000056
:020000040000fa
:040038006e04000052
:020000040000fa
:04003c006e0400004e
:020000040000fa
:040040006e0400004a
:020000040000fa
:040044006e04000046
:020000040000fa
:040048006e04000042
:020000040000fa
:04004c006e0400003e
:020000040000fa
:040050006e0400003a
:020000040000fa
:040054002c04000078
:020000040000fa
:040058004e04000052
:020000040000fa
:04005c006e0400002e
:020000040000fa
:040060006e0400002a
:020000040000fa
:040064006e04000026
:020000040000fa
:040068006e04000022
:020000040000fa
:04006c006e0400001e
:020000040000fa
:040070006e0400001a
:020000040000fa
:040074006e04000016
:020000040000fa
:040078006e04000012
:020000040000fa
:04007c006e0400000e
:020000040000fa
:040080006e0400000a
:020000040000fa
:040084006e04000006
:020000040000fa
:040088006e04000002
:020000040000fa
:04008c006e040000fe
:020000040000fa
:040090006e040000fa
:020000040000fa
:040094006e040000f6
:020000040000fa
:040098006e040000f2
:020000040000fa
:04009c006e040000ee
:020000040000fa
:0400a0006e040000ea
:020000040000fa
:0400a4006e040000e6
:020000040000fa
:0400a8006e040000e2
:020000040000fa
:0400ac006e040000de
:020000040000fa
:0400b0006e040000da
:020000040000fa
:0400b4006e040000d6
:020000040000fa
:0400b8006e040000d2
:020000040000fa
:0400bc006e040000ce
:020000040000fa
:0400c0006e040000ca
:020000040000fa
:0400c4006e040000c6
:020000040000fa
:0400c8006e040000c2
:020000040000fa
:0400cc006e040000be
:020000040000fa
:0400d0006e040000ba
:020000040000fa
:0400d4006e040000b6
:020000040000fa
:0400d8006e040000b2
:020000040000fa
:0400dc006e040000ae
:020000040000fa
:0400e0006e040000aa
:020000040000fa
:0400e4006e040000a6
:020000040000fa
:0400e8006e040000a2
:020000040000fa
:0400ec006e0400009e
:020000040000fa
:0400f0006e0400009a
:020000040000fa
:0400f4006e04000096
:020000040000fa
:0400f8006e04000092
:020000040000fa
:0400fc006e0400008e
:020000040000fa
:040100006e04000089
:020000040000fa
:040104006e04000085
:020000040000fa
:040108006e04000081
:020000040000fa
:04010c006e0400007d
:020000040000fa
:040110006e04000079
:020000040000fa
:040114006e04000075
:020000040000fa
:040118006e04000071
:020000040000fa
:04011c006e0400006d
:020000040000fa
:040120006e04000069
:020000040000fa
:040124006e04000065
:020000040000fa
:040128006e04000061
:020000040000fa
:04012c006e0400005d
:020000040000fa
:040130006e04000059
:020000040000fa
:040134006e04000055
:020000040000fa
:040138006e04000051
:020000040000fa
:04013c006e0400004d
:020000040000fa
:040140006e04000049
:020000040000fa
:040144006e04000045
:020000040000fa
:040148006e04000041
:020000040000fa
:040208006e04000080
:020000040000fa
:04020c006e0400007c
:020000040000fa
:040210006e04000078
:020000040000fa
:040214006e04000074
:020000040000fa
:040218006e04000070
:020000040000fa
:04021c006e0400006c
:020000040000fa
:040220006e04000068
:020000040000fa
:040224006e04000064
:020000040000fa
:040228006e04000060
:020000040000fa
:04022c006e0400005c
:020000040000fa
:040230006e04000058
:020000040000fa
:040234006e04000054
:020000040000fa
:040238006e04000050
:020000040000fa
:04023c006e0400004c
:020000040000fa
:040240006e04000048
:020000040000fa
:040244006e04000044
:020000040000fa
:040248006e04000040
:020000040000fa
:04024c006e0400003c
:020000040000fa
:040250006e04000038
:020000040000fa
:040254006e04000034
:020000040000fa
:040258006e04000030
:020000040000fa
:04025c006e0400002c
:020000040000fa
:040260006e04000028
:020000040000fa
:040264006e04000024
:020000040000fa
:040268006e04000020
:020000040000fa
:04026c006e0400001c
:020000040000fa
:040270006e04000018
:020000040000fa
:040274006e04000014
:020000040000fa
:040278006e04000010
:020000040000fa
:04027c006e0400000c
:020000040000fa
:040280006e04000008
:020000040000fa
:040284006e04000004
:020000040000fa
:040288006e04000000
:020000040000fa
:04028c006e040000fc
:020000040000fa
:040290006e040000f8
:020000040000fa
:040294006e040000f4
:020000040000fa
:040298006e040000f0
:020000040000fa
:04029c006e040000ec
:020000040000fa
:0402a0006e040000e8
:020000040000fa
:0402a4006e040000e4
:020000040000fa
:0402a8006e040000e0
:020000040000fa
:0402ac006e040000dc
:020000040000fa
:0402b0006e040000d8
:020000040000fa
:0402b4006e040000d4
:020000040000fa
:0402b8006e040000d0
:020000040000fa
:0402bc006e040000cc
:020000040000fa
:0402c0006e040000c8
:020000040000fa
:0402c4006e040000c4
:020000040000fa
:0402c8006e040000c0
:020000040000fa
:0402cc006e040000bc
:020000040000fa
:0402d0006e040000b8
:020000040000fa
:0402d4006e040000b4
:020000040000fa
:0402d8006e040000b0
:020000040000fa
:0402dc006e040000ac
:020000040000fa
:0402e0006e040000a8
:020000040000fa
:0402e4006e040000a4
:020000040000fa
:0402e8006e040000a0
:020000040000fa
:0402ec006e0400009c
:020000040000fa
:0402f0006e04000098
:020000040000fa
:0402f4006e04000094
:020000040000fa
:0402f8006e04000090
:020000040000fa
:0402fc006e0400008c
:020000040000fa
:040300006e04000087
:020000040000fa
:040304006e04000083
:020000040000fa
:040308006e0400007f
:020000040000fa
:04030c006e0400007b
:020000040000fa
:040310006e04000077
:020000040000fa
:040314006e04000073
:020000040000fa
:040318006e0400006f
:020000040000fa
:04031c006e0400006b
:020000040000fa
:040320006e04000067
:020000040000fa
:040324006e04000063
:020000040000fa
:040328006e0400005f
:020000040000fa
:04032c006e0400005b
:020000040000fa
:040330006e04000057
:020000040000fa
:040334006e04000053
:020000040000fa
:040338006e0400004f
:020000040000fa
:04033c006e0400004b
:020000040000fa
:040340006e04000047
:020000040000fa
:040344006e04000043
:020000040000fa
:040348006e0400003f
:020000040000fa
:100400004ffb2100ae7e22000e018800000000009c
:10041000000020000000e000020032000001200087
:1004200020028800140007002e0107000000e000f1
:1004300003003a00a07f27000100200002003700df
:100440000000200001002000810f70000100320038
:1004500014000700000020000000e000020032004d
:100460000000020000000000467e020000000000c4
:100470000040da000000fe004440a900c03920001e
:100480000000e0000300320000002000a00188000e
:100490004440a800000006008a1f78008b1f7800e7
:1004a0000000060091018800800478000000eb0045
:1004b0001a003700e284440032a0b4009905ba0063
:1004c000e284440032a0b4009906ba00e2844400f9
:1004d00032a0b4000006eb00476fde00fd07b2005b
:1004e000636ce10003003a00ebff07000000eb0043
:1004f0000a003700606ce10004003a00005deb0088
:100500008b05e900fdff3e00040037006168e10053
:10051000010032000086eb000b00070019c7ba008b
:100520001905ba000e04e00003003a000a00e000da
:10053000e0ff3a0000000600fe07b2009e018800be
:100540008a047800f5ff3700395dba008b05e900b1
:100550000c003200295dba008b05e900080032006a
:100560000c00e00003003a00e284440032a0b40032
:10057000f5ff370019ddba008b05e900faff3a00f4
:100580008904e800e184440032a0b40000000600c1
:10059000000000000000000000000000000000005b
:1005a000000000000000000000000000000000004b
:1005b000000000000000000000000000000000003b
:1005c000000000000000000000000000000000002b
:100850000000000000000000809fbe00821f7800a2
:1008600032118000b0fb800091fb80008270780024
:10087000b0fb80000000e800b0fb8800a1fb800016
:10088000810f500001003a009560a9008560a90021
:100890004f0178004f00be0000400600809fbe0060
:1008a000d0fb80000000e800d0fb8800e1fb800066
:1008b000810f500002003a009580a9000400370023
:1008c000c1fb8000614078000080fb00201188009f
:1008d0008580a9004f00be00004006000040da00fd
:1008e0000000fe000000050003f0a200889fbe008b
:1008f0008a9fbe008c1f78004a0107005101330017
:100900006450e1004f0032006420e10052003200e8
:1009100003826c0007003b000905d0000306d000ed
:10092000820f54000c065d00020039000200320004
:1009300089017800030678008582550004003d0097
:100940000003fd008103fd008502ea008b85420063
:10095000840f720002003b0060001000e08018006d
:100960006011b8000005eb007a28e1000a003900a8
:1009700006007800c75ddd00f707b20087807500cc
:100980002d003700828171000a0178006105600046
:100990008180d1000080d3008502e900f9ff3b008f
:1009a000060440008784480002003b0060041400f5
:1009b000e0841c000988a300070032008a817100ce
:1009c00082817100610164008904d1000884d30030
:1009d0008b05e800170037000978a30013003a00e0
:1009e0000b00e000130034008b05e900080444000c
:1009f00089844c000a4474000978a3000d003a0071
:100a00000b00e000070034008b05e90008044400f7
:100a100089844c0001003a000b0020000978a300f3
:100a2000f7ff32000001eb00020037008281710005
:100a30000a017800c00007000cf0a70001f0a00038
:100a4000090137006420e10002003a00838f6c0046
:100a5000090133000801be000200be000201370098
:100a6000889fbe008a9fbe008c1f7800ed000700a3
:100a7000f400330003866c006450e1002e00320065
:100a80006420e100330032006150e1002f003200a9
:100a90006120e1003100320085855500eb07b00090
:100aa0000900200008042000050037000804440065
:100ab00089844c000a0031000603430087834b0001
:100ac0000001530081815b00f8ff33000203be0088
:100ad0000800a0000804440089844c00f6ff390097
:100ae000c639dd00830173000100320013002000cd
:100af0008904d1000884d3000998a30005003200be
:100b00000800a7000300a0008904d1000884d300d6
:100b10008b05e8008904d1000884d3000001eb00b4
:100b20000281d2008400070001f0a1000cf0a700b0
:100b300001f0a000cc0037006420e100ce003200bc
:100b40000801be000200be00f7ff37006120e1008f
:100b5000c90032006000b800f3ff37000000200039
:100b600001f82700f0ff370014002000d9013700fa
:100b7000f4ff2f00d70137000003be0094000700e8
:100b80006011b8000470a70007f0a10007f8a300e7
:100b900017003a006509b1000d0032000d00350064
:100ba000860220000628e10003003500030028002b
:100bb0006000b8000200050000004000818048008d
:100bc00002014900838149008502e900faff3a00e9
:100bd00000000600f88f4200050034008100d100bb
:100be0000080d3008502e800fcff3a000000060008
:100bf0006011b8008000eb00000005000001be009d
:100c0000730007000470a70003f0a10003f8a3001d
:100c100013003a006509b1001000320009003500e8
:100c20006928e100020035000100280000000500ed
:100c300000004000818048008502e900fcff3a0086
:100c400000000600f88f4200050035008100d10049
:100c50000080d3008502e800fcff3a000000060097
:100c60008000eb00000005004f89de008201780063
:100c7000b3013700889fbe008a9fbe0000827000cb
:100c80000402710004827100260032000004be00dc
:100c90000200be006011b8006b0920009502200020
:100ca0000182cf000a0039000541b1000082cf0067
:100cb000070039000541b1000982cf000400390066
:100cc0000541b1000882cf00010039000541b100a3
:100cd00005425200120032000a003b00828171007e
:100ce000610164008100d1000080d3008984d300b9
:100cf0000884d3008b05e8000442e800f7ff3a00bf
:100d0000070037000804440089844c0000004800b4
:100d1000818048008b05e9000442e900f9ff3a00b0
:100d2000050007004f05be004f04be00000006008e
:100d30006011b800cfff37008100200061805500ae
:100d40000b003d000b00200061fe2f000100e100c0
:100d50001d00340082817100610164008904d100aa
:100d60000884d3000000e800faff3a007100200078
:100d7000610064000300700002006000090032009e
:100d800061044400e0844c000988a500050032009d
:100d90008b05e8006808e10002003a008904d100f0
:100da0000884d300f20f20000258e10005003d0046
:100db000c75ddd00f907b200898075000800780082
:100dc000000006000bf827008b00780000000500eb
:100dd000c70ade00f107b200f50fb20008003200ca
:100de000e1cf4200020032000170a00024000500a3
:100df000810f700001003200040805004400050066
:100e0000810f700002003a00140005008502e9001d
:100e10000000400081c04800fcff3b000170a000c2
:100e2000240005000004be00e9ff07000003be0027
:100e30000405be000200be00e5ff0700844f7500f8
:100e4000000006000200be006450e100050036000c
:100e50006420e100020036000968a30001003a00a6
:100e60000800be000160a0004f0678004f05be00dc
:100e70004f04be0000000600f0ff2f00f1ff270026
:100e8000f9ff3700889fbe008a9fbe008c1f780044
:100e9000e4ff0700ebff330003866c006450e100c1
:100ea000240032006420e100270032006150e1009c
:100eb000220032006120e100210032008b854200d7
:100ec000eb07b1000134b800003ab8000804420052
:100ed00089844a00013ab8000030b8008880400098
:100ee00009014a00040033000000400081804800ee
:100ef000020149008b05e900c909dd00830170008a
:100f00000100320013002000c814de004814dd0088
:100f10004709de001200b200c808de000884700035
:100f200085ff070001f0a1000cf0a70001f0a00070
:100f3000cdff37006120e100cfff32000801be0085
:100f40000200be00f7ff37006150e100fcff3a00ed
:100f5000c9ff37006022b800060220000000d00060
:100f60008180d2000482d2008582d2000000a000dd
:100f70000202520083825a00030031000202420042
:100f800083824a000000a1000603e900f3ff3a0053
:100f900000000600efff07000400be00000006008e
:100fa000889fbe008a9fbe0030044200b0844a0081
:100fb00030054b0090854b006000b1000898be00e2
:100fc0000a90be000440e10005c8e10006d0e1003f
:100fd00007d8e10002003100680040001008e80076
:100fe0004f05be004f04be0000000600889fbe00f3
:100ff0008a9fbe003004be002005be0004185400c5
:1010000005985c0006185d0007985d00110020003f
:101010000440e10005c8e10006d0e10007d8e10086
:10102000010039008000eb00108810004f05be0061
:101030004f04be00000006001200fa00889fbe00a8
:101040008a9fbe008c9fbe00e0b79f00f1b79f0053
:1010500082bf9f0093bf9f000605be000404be0030
:101060000000eb00d0b79f00c0b79f00b0b79f0053
:10107000a0b79f0090b79f000006eb005fb19700fc
:10108000cfb09700820141003fb097000200e0001e
:1010900004003d00370007007e805700c0ff0700b6
:1010a00003003700330007007e805700cfff0700a2
:1010b000dfb697000d00e0000c0035006fb297001e
:1010c000ffb297000fbb97009fbb97001000200056
:1010d000010020006011b8000002720081827200dd
:1010e00002037300838373001b0007000c06e800f3
:1010f00001042000810f5600e0ff3a000d00e000df
:1011000004003d000802be000a03be007e805700b6
:10111000a3ff07005fa897000000e00005003a0069
:101120001fb29700afb297003fb39700cfb39700bd
:10113000090007006fb09700ffb097000fb9970044
:101140009fb997004f06be004f05be004f04be007a
:101150000080fa0000000600010007000000060001
:10116000a4b79f00b5b79f00c6b79f00d7b79f0031
:10117000000006004f09de0082817100b3b79f00b6
:101180004f01de008180400082807000a1b79f0087
:101190008fb097004f09de00000040000200700091
:1011a00090b79f007fa897004f01de00818040002c
:1011b0008280700081b79f000d0007004f3ade006b
:1011c0000000400004007000f0af9f00080007001e
:1011d0000402420085824a0006034b0087834b00cd
:1011e000dfff07000802be000a03be000000060081
:1011f0002fb29700bfb297004fb39700dfb39700ad
:1012000000000600881f780018002000881f780062
:1012100089ff07008f87e9004f047800000006006f
:10122000801feb0084ff07008f87e90000000600a5
:10123000889fbe008a9fbe008c1f78000006eb00ce
:10124000e00f5000e08f5800e00f5900e08f590088
:1012500007003d006044b8006055b800000054002d
:1012600081805c0002015d0083815d001c00200024
:10127000e00f5200e08f5a00e00f5b00e08f5b0050
:1012800007003d006044b8006055b80004025400f7
:1012900085825c0006035d0087835d000c00a20070
:1012a000370007000c00e000060032006022b800a2
:1012b0006033b8000000520081805a0002015b00d8
:1012c00083815b004f0678004f05be004f04be00cf
:1012d00000000600889fbe008a9fbe00841f780021
:1012e000d0fe07004f00780011003300f0ff2f0000
:1012f000838f6c0006003b00040565000a00a70010
:101300000800370009f0a600100020000800370090
:10131000820f5400838f5c0003003900100020000e
:1013200001003e000000200009f0a7000000ea00d4
:101330004f05be004f04be000000e00000000600a4
:10134000881f7800030478000300e00007003d00d8
:1013500060001000e080180060011900e0811900b1
:1013600002003b0001f02d000300370041fe0700a2
:1013700008f0a70001f0a0004f047800000006006c
:10138000889fbe008a9fbe008c9fbe000404b800e8
:101390000506b8008904460060854e000606b800c0
:1013a0000a054600e0854e000706b8008b0546009a
:1013b000040eb800890446000a854e00e0854d0001
:1013c000050eb8000a0546008b854e00060eb800d3
:1013d0008b0546000416b8000a0546008b854e00b2
:1013e0000516b8008b054600041eb8008b054600a4
:1013f0000800be000a01be004f06be004f05be0039
:101400004f04be0000000600800178000200370093
:10141000b15978000201e9000200e000fcff3a0047
:101420000000060080017800020037008159780032
:101430000201e9000200e000fcff3a0000000600a3
:020000040000fa
:101440000052000045540000555200004e000000bc
:10145000525500004e0000004c490000535400005b
:101460000045000058490000540000004e450000af
:10147000570000004c4500005400000049460000a1
:1014800000540000484500004e000000454c00009c
:1014900053450000004700004f5400004f0000007b
:1014a000474f000053550000420000005245000025
:1014b0004d00000050520000494e00005400000052
:1014c000494e00005055000054000000464f0000f7
:1014d00052000000544f0000004e0000455800002c
:1014e0005400000052450000414400000044000048
:1014f00041540000410000005354000041520000dc
:1015000054520000005300005441000052540000a7
:1015100000530000544f00005052000000530000e0
:10152000544f000050000000534500004e4400009e
:1015300000520000454300004549000056450000a8
:10154000004300004c4b00000044000041540000e8
:101550000042000049540000524500004144000090
:1015600000410000444300000041000055580000c5
:10157000504900004e00000050530000550000008c
:10158000505500004c4c0000555000000044000035
:10159000454c000041590000004100005558000032
:1015a0000046000052450000510000004455000074
:1015b00054590000004d000041430000524f00000c
:1015c000004500004e440000000000003a8a000080
:1015d0003e8a0000418a0000468a00004b8a0000d3
:1015e000508a0000218a0000568a00005a8a0000b2
:1015f000608a0000668a00006a8a00006d8a000026
:10160000728a0000778a00007c8a0000838a0000ca
:10161000898a00008f8a0000948a0000998a00005d
:10162000a18a0000a58a0000a98a0000b18a0000f2
:10163000b58a0000bc8a0000c08a0000c78a00008a
:10164000cd8a0000d18a0000d68a0000db8a000023
:10165000e18a000000000000002e0000003a0000b7
:1016600020000000005e0000bce20000613f0000be
:10167000dd830000c29c00007e200000a3fd00006e
:101680001f4100009dc30000217f0000fca200005c
:10169000401e00005f010000e3bd00003e6000004e
:1016a00082dc0000237d00009fc10000421c00007e
:1016b000fea00000e1bf00005d03000080de00002e
:1016c0003c620000bee00000025c0000df81000020
:1016d000633d00007c220000c09e00001d4300000e
:1016e000a1ff000046180000faa4000027790000be
:1016f0009bc5000084da000038660000e5bb0000ee
:1017000059070000db85000067390000bae40000db
:101710000658000019470000a5fb000078260000cd
:10172000c49a0000653b0000d9870000045a0000fd
:10173000b8e60000a7f900001b450000c6980000ad
:101740007a240000f8a60000441a000099c700009f
:10175000257b00003a64000086d800005b0500008d
:10176000e7b900008cd20000306e0000edb300003d
:10177000510f00004e100000f2ac00002f7100006d
:1017800093cd0000114f0000adf30000702e00005b
:10179000cc920000d38d00006f310000b2ec00004d
:1017a0000e500000aff10000134d0000ce9000007d
:1017b000722c00006d330000d18f00000c5200002d
:1017c000b0ee0000326c00008ed00000530d00001f
:1017d000efb10000f0ae00004c12000091cf00000d
:1017e0002d730000ca94000076280000abf50000bd
:1017f0001749000008560000b4ea000069370000ed
:10180000d58b000057090000ebb5000036680000da
:101810008ad4000095cb000029770000f4aa0000cc
:1018200048160000e9b70000550b000088d60000fc
:10183000346a00002b75000097c900004a140000ac
:10184000f6a80000742a0000c8960000154b00009e
:10185000a9f70000b6e800000a540000d78900008c
:101860006b35000049090000004f0000090000002e
:1018700048090000004c000009000000000d0000b5
:101880000a28000000780000002900003e00000047
:1018900008200000080000002e2000000042000088
:1018a0007573000020500000697200006174000030
:1018b0006520000076330000004300006f6d0000db
:1018c0006d7500006e69000074790000204600000c
:1018d000697200006d7700006172000065200000f1
:1018e000763700002e310000202d00002067000018
:1018f0006f6f00002e6700006c2f00006743000030
:101900007a5100006e5700002000000029000000fe
:101910003e0000001b5b0000440000001b5b000059
:1019200000440000001b00005b430000001b00009f
:101930005b3200004b0d000000430000001b000064
:101940005b320000440000002e2000003c0000003c
:101950000000000001000000000000000200000084
:10196000000000000400000000000000080000006b
:101970000000000010000000000000002000000037
:101980000000000040000000000000008000000097
:1019900000000000800000000000000000010000c6
:1019a0000000000000020000000000000004000031
:1019b000000000000008000000000000001000000f
:1019c00000000000002000000000000000400000b7
:1019d0000000000000800000000000000000000087
:1019e00001000000000000000200000000000000f4
:1019f00004000000000000000800000000000000db
:101a0000100000000000000014340000040d00006d
:101a10008206000040030000a0010000cf0000008b
:101a20006700000044000000220000007f0000006a
:101a300000000000000000002c0100000000000079
:101a40005802000000000000b00400000000000088
:101a50006009000000000000c0120000000000004b
:101a60008025000000000000403800000000000059
:101a7000004b00000000000080700000000000002b
:101a80000096000000000000c0da00000000000026
:101a900000e100000000000000c2000001000000a2
:101aa00000f400000100000000e800000300000056
:101ab00030300000302c000000300000300000000a
:101ac00008080000080800000800000000300000be
:101ad0003132000033340000353600003738000062
:101ae0003941000042430000444500004600000028
:101af000314100004c5300000142000050760000cc
:101b0000330000002100000000100000002300004e
:101b1000000f0000424000004005000041020000ac
:101b20000000000000000000181c00001d0c000058
:101b3000161a00000b0f00001e1700001b0000000b
:101b400014640000020a000001050000000000000b
:101b5000003500003f620000610000002900000025
:101b6000000000000020000029000000000000002c
:081b700000000000000000006d
:020000040000fa
:101b7800d0f480000000e800f007b20081e1210005
:101b8800e140780080c7b30080cf500010003200d9
:101b98007440500080cf50000900320000c0e900b6
:101ba80080cf5000080032000040eb0072c7b3003d
:101bb80082cf500008003a003000200005003700ae
:101bc800100020000300370020002000010037002b
:101bd8000000eb000040e80000000600421680000c
:101be8008000610050c328000100320020c3280093
:101bf8000c6702000000000000000600521680007a
:101c080080006100b0c328000100320080c32800b2
:101c18000c67020000000000000006008000780049
:101c280000c3b3000100e000010032000040e800fa
:101c38008a6502000000000000000600889fbe00c0
:101c480000e8280001002000fe7c020000000000df
:101c5800a02c280001002000fe7c020000000000eb
:101c680000a4280001002000a47c0200000000005d
:101c780070f821009080fb00000320000088b90064
:101c88004002b00081c62100610078000000010018
:101c980080e8280001002000a47c02000000000069
:101ca80000402000cdff070000102000cbff0700f8
:101cb80000202000c9ff070000042000c7ff07001c
:101cc80000082000c5ff0700e0c3280020680200c4
:101cd80000000000c0ff280001002000a47c0200d2
:101ce8000000000021e3a800a000200062640200b8
:101cf800000000008a66020000000000e8052900d4
:101d0800090020000800be00a47c020000000000ba
:101d180090c0b3008a650200000000009000200017
:101d280062640200000000008a66020000000000f1
:101d38000800be00a47c02000000000090c0b300b0
:101d48008a65020000000000c000200062640200f2
:101d5800000000008a660200000000000800be00c3
:101d6800a47c02000000000090c0b3008a65020055
:101d780000000000b00020006264020000000000c3
:101d88008a660200000000000800be00a47c020071
:101d98000000000090c0b3008a6502000000000047
:101da80021e3a9000040200094ff07000010200054
:101db80092ff07000020200090ff07000004200089
:101dc8008eff0700000820008cff0700e0c32800f2
:101dd80020680200000000004f04be00000006005a
:101de80040fc280001002000a47c02000000000044
:101df800c1bf2a000000eb009a6402000000000046
:101e0800a065020000000000e0f4280001002000a6
:101e1800a47c020000000000e1bf2a000000eb00e3
:101e28009a64020000000000a065020000000000a3
:101e3800e0c328002068020000000000c0d8280085
:101e480001002000fe7c0200000000007bff07006c
:101e5800c202ab000500320080c428000100200047
:101e6800a47c0200000000000400370040b72800ee
:101e780001002000a47c020000000000c0c2b300e2
:101e88008a6502000000000000c2b3008a650200f3
:101e980000000000cb62ab000500320060b62800ed
:101ea80001002000a47c02000000000004003700ac
:101eb80060ab280001002000a47c020000000000a4
:101ec800c0c2b3008a6502000000000000c2b3006f
:101ed8008a6502000000000060f5210010407800cb
:101ee80070406000050032000075280001002000e5
:101ef800fe7c020000000000040037002088280053
:101f080001002000fe7c02000000000060f52100b6
:101f1800104078006840600005003a00e092280010
:101f280001002000a47c020000000000040037002b
:101f38002094280001002000a47c0200000000007a
:101f4800c0c2b3008a6502000000000000c2b300ee
:101f58008a65020000000000209928000100200086
:101f6800a47c02000000000080f5210010407800e9
:101f78006666020000000000e0c328002068020036
:101f88000000000060f52100104078006340600008
:101f9800e14f500005003a0060aa28000100200027
:101fa800fe7c0200000000000400370060a9280041
:101fb80001002000fe7c02000000000070f82100f3
:101fc8009080fb00000320000088b9006002b00088
:101fd80081c621006100780000000100c0d82800f7
:101fe80001002000fe7c0200000000000000060046
:101ff800889fbe008a1f7800d3f480000300780011
:10200800f007b20081e1210061407800f1ccb30013
:1020180081404000e8cf50001a003e000080fb00dd
:102028000003b1008300e800f107b20082e121005b
:1020380062c1780004cdb3000442410011002000c1
:10204800e94f520077003e00f807200087e12100a1
:1020580006cdb3006a02b9000280fb00040040000c
:102068000003b1008100e80003814000080161001d
:102078006741790006424100e94f5200f5ff3600fa
:102088006800370001c3b300814f500060003a0078
:102098000300e800f007b20081e121006141780007
:1020a80020c6b300804f51000b003a000380e800bf
:1020b800f007b20081e121006141780004cdb3004e
:1020c800044241000000eb0021002000e14f5200d3
:1020d800050036005300370020c4b300804f51007c
:1020e80010003a00f1ff3700f707200086e12100d1
:1020f80005cdb300000040000281fb000200400053
:102108000003b1008100e80003814000070161007d
:102118006641790005424100e14f5200f5ff360063
:102128004000370080c7b300804f51000a003200da
:1021380080c5b300804f51001e003a0009003700e7
:102148004400dd000003b1000281fb0002004000f2
:102158008100e8000a0037000000eb0021002000a1
:10216800020037000000eb0021002000f8072000e3
:1021780086e1210007cdb300f9cbb300fac9b3005b
:10218800038240000802620066417a0087424100eb
:10219800e9cf5200eaff360089424100e5cf5200fc
:1021a800270036008a424100e5cf5200240036005d
:1021b8001c00370004cdb300044241000000eb00ce
:1021c80011002000e94f520016003e000280fb007b
:1021d8000003b100f807200087e1210006cdb30015
:1021e8006a02b9000280fb00040040000003b1004d
:1021f8008100e8000381400008016100674179001f
:1022080006424100e94f5200f5ff3600050037004d
:1022180011c0b300c0e92100014878000000eb00bc
:1022280004003700d2f4800082804000f107b20039
:10223800d1f488004f0578004f04be000000060066
:102248000254a00002737a004400dd007005b1005a
:102258000281fb0002004000bdff3700881f7800a4
:10226800d1f480000100e800f007b20082e121000b
:10227800e241780010002000a2c3b30082cf5100d1
:1022880009003a008180e800f80720008880600093
:10229800d1f4880056ff0700d1f480008100e900de
:1022a80008846000d8f488004f0478000000060015
:1022b800881f7800d1f480000100e800f007b20020
:1022c80082e12100e24178000000eb00b2c3b300d4
:1022d80082cf510009003a008180e800f807200009
:1022e80088806000d1f4880041ff0700d1f48000a5
:1022f8008100e90008846000d8f488004f04780061
:1023080000000600d0f4800081e1210061417800de
:1023180001c2b300814f510009003a00f4072000c0
:1023280083e12100014178000000e800040060001a
:10233800e340780082cf5000fbff3200d0f48800e1
:1023480000000600f6874700889fbe008a9fbe00ef
:102358008c9fbe008e1f7800e0b79f00d1b79f000a
:10236800a2b79f0083bf9f000acdb300dcc2b300b1
:10237800ecef9f008ec7b300a89628000900200044
:10238800b8b79f00c9b79f00f0c328000c670200c8
:1023980000000000efb097000100e00004003d00dd
:1023a80030c428000c67020000000000030037005a
:1023b8004fe89700666602000000000050c428003d
:1023c8000c670200000000008006eb008005eb00af
:1023d800826502000000000000447800ed4f5400c0
:1023e8004300320005003e00e84f54000800320068
:1023f800ea4f540027003a003d0037008c4f540044
:10240800150032008e4f540022003a001d0037009c
:102418000b00e000050032008b05e90080c42800ad
:102428000c67020000000000e9ff37000d00e00023
:102438000500320080c428000c670200000000007c
:102448008006eb00e2ff370070c0b3008a65020027
:1024580000000000deff37000b00e00005003a0036
:102468006fe897008a650200000000001d00200048
:10247800d7ff370070c0b3008a6502000000000073
:10248800d3ff37000fb897000000e00014003200b7
:10249800380037000a404400e94f500010003e0061
:1024a800e38f55000500340070c0b3008a65020050
:1024b800000000004b002000c5ff370008407800ee
:1024c8008a6502000000000008407800e1fd2f0046
:1024d8008f80400080f07d008b05e800bcff37004e
:1024e80070c0b3008a65020000000000b8ff370022
:1024f800e0c3280020680200000000000b00e00094
:10250800200032000b00e9000001eb000900330055
:10251800e0fd2f000f0040008b0540006a11b90054
:10252800b080fb000103b100028140008b0f500016
:10253800faff3a00dfb09700828f500008003c0095
:102548002fb09700820f5000050035000d00e00005
:102558000b0032000200ea00e0b79f0009003700d4
:102568003fb09700cfb09700fe7c0200000000004b
:1025780085ff37008080eb00e1b79f00010037003e
:10258800e2b79f006fb097004f0778004f06be0074
:102598004f05be004f04be006f01b10000000600e9
:1025a8000e00fa00889fbe008a9fbe008c9fbe0066
:1025b800d0f480000004e900f807b2001d002000f4
:1025c800880f50002a00320089e12100fb07200013
:1025d80069407c000004e00020003a000806e8009a
:1025e8000b06660069407e000004e0001b00320014
:1025f8000d4078006666020000000000c0c4280094
:102608000c6702000000000069407e000004e00042
:10261800080032000885e8008a6502000000000012
:102628000b006500694078000a05e8000004e00036
:10263800f9ff3a000d8046000c017800fa80570037
:10264800823078008d06e800e78f560008003200d7
:10265800e0c3280020680200000000000804e90028
:102668000b046400d0f48000800f5400d8ff3a00b7
:10267800e0c32800206802000000000020f42800c1
:1026880001002000fe7c0200000000001300200072
:102698000d017800830078000000eb0029ff070097
:1026a8008000e800e18f50000b0036000000400079
:1026b800fa805700e102780005007800f007b200c0
:1026c80081e12100e14078000000eb000104e00016
:1026d80006003a0012003700e0c328002068020014
:1026e80000000000100020001c003700c6f4800025
:1026f8000000eb00f307200082e121000602400001
:102708000302620001717a000000e80085004000c1
:1027180083806000e2c078000104e000f7ff3a001f
:10272800c2f480000201e900f10720000101610004
:10273800d2f488000281e800000041000100600036
:10274800c0f488000000e900810060000041eb004f
:1027580080e1210002f078000000eb004f06be0087
:102768004f05be004f04be000080fa0000000600be
:10277800889fbe008a9fbe00d0f480000000e80059
:10278800f007b200d0f48800defe070018fe07004c
:102798000000e00045003a000004eb0009032000b7
:1027a8008ac621000840e8006666020000000000b2
:1027b800c0c428000c6702000000000009c0b9006e
:1027c8008002b0000a0040002068020000000000fb
:1027d8000804e800e90f5400f2ff3a0060ae280050
:1027e80001002000fe7c020000000000c0e921007a
:1027f8000048eb00130020009200200083007800be
:1028080003007800cffe07000004e9000000e8009c
:10281800e10f500005003e0020d8280001002000ec
:10282800fe7c0200000000003f00370079f821001c
:102838001980fb000a0320000a80b9002002b000ba
:102848008bc621006b007800000001002c64020098
:1028580000000000884c78000880fb000a80b9005e
:102868007e0540006b007d000000010040be28008e
:1028780001002000fe7c0200000000000800e000cb
:1028880005003200c222a800403d280001002000b7
:10289800fe7c020000000000c0fb280001002000b0
:1028a800fe7c0200000000001f0037000004e90061
:1028b800e80f540018003c0079f821001980fb004b
:1028c8000a0320000a80b9002002b0008bc621004c
:1028d8006b007800000001002c640200000000007a
:1028e800884c78000880fb000a80b9007e0540000b
:1028f8006b007d00000001000800e00001003200cc
:10290800c222a800c0fb280001002000fe7c0200b3
:10291800000000000400370060af2800010020001c
:10292800fe7c020000000000c0f480000000e90006
:10293800f007b200d0f488004f05be004f04be0077
:1029480000000600881f7800d0f480000000e8002e
:10295800f007b200d0f488006afe0700a4fd070063
:102968000040e900e94f500003003e0051f8210003
:10297800804878000d003700c0e921000048eb00ce
:102988008014280001002000fe7c020000000000e6
:102998008001eb00a2002000110020009000200020
:1029a80068fe070051f821008048e9000044eb0068
:1029b80050f8210091c0b30090cf100011003a00e8
:1029c80050fe07008afd0700004478000804e00074
:1029d8000c003a00c0e921000048eb0060b4280070
:1029e80001002000fe7c0200000000008001eb00d6
:1029f800f2ff27008000eb002002200051fe0700b4
:102a08000044780000b9280001002000fe7c020084
:102a18000000000080c7280001002000fe7c0200a2
:102a2800000000001c6902000000000050f82100ae
:102a380091c0b30090cf100003003a000880fb005b
:102a48002669020000000000b064020000000000d7
:102a580008c2b3008265020000000000884f5000e1
:102a6800fcff3a004f04780000000600d0f4800014
:102a78000000e800f007b200d0f4880021fe07004b
:102a88005bfd07008000e900e38f500003003e0073
:102a980061f821008048e9000d003700c0e92100f5
:102aa8000048eb008076280001002000fe7c020030
:102ab800000000008001eb0042002000110020000f
:102ac800100020001ffe070061f821008048e9007f
:102ad80020b8280001002000fe7c02000000000051
:102ae80000000600889fbe008a9fbe00f0c4280030
:102af8000c67020000000000e0c2b3008a65020013
:102b08000000000040f82100104078008a650200ab
:102b18000000000001fc8000f0442000808f50007d
:102b280004003a0060b3280001002000a47c0200e1
:102b380000000000e0c32800206802000000000038
:102b4800d0c528000c67020000000000b0c5b30023
:102b58008a65020000000000190020000004eb0054
:102b68000a0320008bc62100020037000804e80091
:102b78008904e8000800e0007300320000c2b300d6
:102b88008a650200000000000ac0b9008002b00097
:102b98000b0040000c67020000000000e88f5400a2
:102ba800f2ff3600d0c5b3008a65020000000000bd
:102bb80060d9280001002000a47c02000000000069
:102bc800a1bf2a000000eb009a6402000000000088
:102bd800000478004840de0066660200000000003d
:102be800e0c2b3008a6502000000000008407800d7
:102bf8006666020000000000e0c3280020680200aa
:102c08000000000080f4280001002000a47c0200dd
:102c18000000000008f8210018007800a0650200f4
:102c28000000000080f7280001002000a47c0200ba
:102c38000000000010fc8000a065020000000000f9
:102c4800a0df280001002000a47c02000000000092
:102c5800f0442000980f100005003a008005290074
:102c680001002000a47c02000000000004003700de
:102c78006005290001002000a47c0200000000007b
:102c880010fc800021042300810f50001100320045
:102c980004003e00f103b100810f50001c003a000f
:102ca8000700370031042300810f50000e00320066
:102cb800e3804000810f500015003a000f003700f4
:102cc800e004290001002000a47c020000000000ac
:102cd800130037000005290001002000a47c020031
:102ce800000000000e003700200529000100200028
:102cf800a47c0200000000000900370040052900fc
:102d080001002000a47c020000000000040037003d
:102d18004001290001002000a47c020000000000fe
:102d280060c828002068020000000000c086280053
:102d380001002000fe7c0200000000004f05be00dc
:102d48004f04be00000006000ac0b9008002b000af
:102d58000b0040000c6702000000000083ff3700f2
:102d68004f02b000889fbe008a9fbe008c9fbe00a5
:102d78008e1f78000000eb00d0f48800c0f48800b3
:102d880071f8210080487800c1e921008048eb00f3
:102d9800d1e92100470009008058eb0030f788008e
:102da80080bf9f0090b79f00a0b79f00ecf128005c
:102db8000d0020006aac28000b00200002e6280065
:102dc80003002000a2af9f00b3af9f008aaf9f000f
:102dd8009baf9f0070f821001081fb0000032000ca
:102de8000091b90001c92100010041000c670200ef
:102df8000000000080f821001000780064006000e6
:102e0800030032000c00be00a47c02000000000099
:102e180080c828000c670200000000008003eb0057
:102e2800f7b79f00d9e921006ef5210030f780003f
:102e38000000e000430032000000e90030f788009d
:102e48007801b900e94079000104e000140032007b
:102e58000004eb00c2f4800083e121008171790055
:102e68007800b90000004400694078008a650200d3
:102e7800000000000804e800c0f480000000e8003a
:102e8800f007b200c0f4880030f780007801b9007c
:102e980002014400e94079000104e000edff3a0036
:102ea8000000eb0030f78800260037001e4278004b
:102eb800644062002500320076f821001680fb008d
:102ec8000880b9007a0040006a007800000001001c
:102ed8000004e0001d00320077f821001780fb0095
:102ee8000880b9008002b0000a0040000c670200a8
:102ef8000000000080c828000c67020000000000e5
:102f0800dbf48000c0f48000808f55000f00320091
:102f18008b0f50000d00320081e1210061c07d005f
:102f28008a65020000000000f20720008285650023
:102f38008b05e800c0f48000808f55000300320044
:102f4800f5ff3700080320008ac62100d664020076
:102f5800000000000004e000d4ff32002a690200eb
:102f6800000000000004e0000300320030690200a5
:102f780000000000adff370082650200000000007d
:102f8800004478000880fb008000eb00f307200075
:102f9800830f5000e08f58009e023e000060010041
:102fa80094023700520237000f01370099023700a8
:102fb800be0037006402370022013700950237004f
:102fc8007700370093023700750237009102370007
:102fd80090023700720237009f0137008d023700d8
:102fe800270137008b0237008a0237008902370031
:102ff80088023700870237008602370085023700cb
:10300800840237008302370082023700d00037007d
:10301800800237007f0237007e0237007d023700ca
:103028007c0237007b0237007a02370079023700ca
:1030380078023700770237007602370075023700ca
:1030480074023700730237007202370071023700ca
:10305800700237006f0237006e0237006d023700ca
:103068006c0237006b0237006a02370069023700ca
:1030780068023700670237006602370065023700ca
:1030880064023700630237006202370061023700ca
:10309800600237005f0237005e0237005d023700ca
:1030a8005c0237005b0237005a02370059023700ca
:1030b80058023700570237005602370055023700ca
:1030c80054023700530237005202370051023700ca
:1030d800500237004f0237004e0237004d023700ca
:1030e8004c0237004b0237004a02370049023700ca
:1030f80048023700470237004602370045023700ca
:1031080044023700430237004202370041023700c9
:10311800400237003f0237003e0237003d023700c9
:103128003c0237003b0237003a02370039023700c9
:1031380038023700370237003602370035023700c9
:1031480034023700330237003202370031023700c9
:10315800300237002f0237002e0237002d023700c9
:103168002c0237002b0237002a02370029023700c9
:1031780028023700270237002602370025023700c9
:1031880024023700230237002202370021023700c9
:10319800200237001f0237001e02370043003700a5
:1031a800d0f480000fba9700800f52003b00320025
:1031b800c0f48000800f52000c003a000400e900bf
:1031c800f007b20080bf9f00c0f488000040eb0009
:1031d80086e121008fbb970000f37b0080c42800a4
:1031e8000c6702000000000010ff37008fb897003e
:1031f8000100e900f007b20080bf9f00a0c82800c6
:103208000c67020000000000c0f480000005eb001d
:103218000fb99700800f5100130032008200780028
:10322800fb0720000104e80083e1210063407c00e3
:1032380080f178000004e000030032008a65020093
:10324800000000000300370000c2b3008a650200d6
:10325800000000000a05e8008b006400c0f480004c
:10326800808f5000efff3a000000e900f007b2003d
:10327800c0f48800e0c828000c67020000000000c5
:103288000a407800666602000000000010c92800a5
:103298000c67020000000000e4fe370070c0b300b5
:1032a8008a65020000000000e0fe3700c0f48000dc
:1032b8000fba9700800f5200210032008400780076
:1032c8000005eb00fb0720000104e80086e121006f
:1032d80066407c0000f378000004e0000300320040
:1032e8008a650200000000000300370000c2b30036
:1032f8008a650200000000000a05e8008b006400ef
:10330800c0f48000808f5000efff3a000000e90011
:10331800f007b200c0f48800e0c828000c6702007b
:10332800000000000a407800666602000000000005
:1033380010c928000c67020000000000bbfe37001f
:1033480070c0b3008a65020000000000b7fe3700b5
:103358008265020000000000b1c5b300814f500033
:10336800b2fe3a00826502000000000011c4b300fa
:10337800814f50004200320007003e00f0c050006c
:10338800814f50000c003200e3c04000814f5000d4
:10339800a6fe3a000e00370031c4b300814f50003a
:1033a80028003200ac0039008140e800814f50000d
:1033b8009efe3a000c003700826502000000000003
:1033c800e1c7b300814f500098fe3a00480137002a
:1033d8008265020000000000e1c7b300814f500081
:1033e80092fe3a00580137009fb39700e48f5300cc
:1033f80005003400807c0200000000000000eb00a3
:1034080090b79f0089fe3700d0f480008fb89700ee
:10341800808f5000070032000100e900f007b20079
:1034280080bf9f00a0c828000c67020000000000b1
:103438007efe370070c0b3008a65020000000000fd
:103448007afe3700c0f480000fb99700800f510052
:10345800070032000200e800f007b20080bf9f00ba
:1034680030c928000c670200000000006ffe37001a
:1034780070c0b3008a650200000000006bfe3700d0
:10348800d5f480000504e900f807b20008057800c3
:10349800c2f48000820f54006b0032000002eb007f
:1034a800f0072000ffb1970086e12100e6407c008c
:1034b8000104e0005f003a008800e90080806000b5
:1034c80066c378000604e0005a0032000402e800ef
:1034d800830f52005700360001007800ffb39700b1
:1034e8008703e800f7b79f00828f52000b00320075
:1034f8000042eb00f307200086e121000473790005
:103508000201e90003016100828f5200faff3a00cc
:10351800c2f488008041eb0003737900c2f4800094
:10352800820f50001200320087e1210067407800c6
:10353800f30720000004e00009003a000400370007
:1035480084e1210064c078000004e00004003a002f
:103558008100e800f107b200a1b79f00040037001e
:103568008100e90083806000828f5000f4ff3a00f8
:1035780070c928000c6702000000000076f82100de
:103588001681fb00000320000091b90000c921004a
:1035980000014100020078000c67020000000000f2
:1035a80080f82100100078006400600003003200f9
:1035b8000c00be00a47c02000000000080c82800a7
:1035c8000c67020000000000afb39700888f53001b
:1035d800100032008705780081e1210061c07d007c
:1035e8008a65020000000000c0f4800082e121002a
:1035f8006b7079000000e800f40720000400600008
:10360800c0f488008b05e80084856500888f550024
:10361800f1ff3a00c6f4800086bf9f000040eb002f
:1036280087e1210080737b008a0f5300fffd3a0079
:10363800050037000804e900000464000805780064
:10364800820f540098ff3a0070c0b3008a650200e8
:1036580000000000f5fd3700d5f480000504e900fe
:10366800f807b20008057800c2f48000820f540001
:103678006c0032008001eb00f10720007fb097005a
:103688000002e90086e1210066407c000004e000b9
:103698005f003a000800e900010060006643780016
:1036a8000604e0005a0032008301e800830f52004c
:1036b80057003a0080007800ffb397008703e900bd
:1036c800f7b79f00828f52000b0032000042eb00d8
:1036d800f307200086e12100047379000201e90064
:1036e80003016100828f5200faff3a00c2f4880099
:1036f8008041eb0003737900c2f48000828f500090
:103708001200320087e12100e7c07800f3072000ab
:103718000104e00009003a000400370084e12100b8
:10372800e44078000104e00004003a000000e800ea
:10373800f007b200a0b79f00040037000000e900be
:1037480003006000820f5000f4ff3a0070c928009f
:103758000c6702000000000076f821001681fb00cb
:10376800000320000091b90000c9210000014100b8
:10377800020078000c6702000000000080f82100b9
:103788001000780064006000030032000c00be00e6
:10379800a47c02000000000080c828000c6702001a
:1037a80000000000afb39700888f5300100032006c
:1037b8008705780081e1210061c07d008a650200eb
:1037c80000000000c0f4800082e121006b707900e5
:1037d8000000e800f407200004006000c0f488003e
:1037e8008b05e80084856500888f5500f1ff3a0055
:1037f800c6f4800086bf9f000040eb0087e12100ef
:1038080080737b008a0f530088fd3a00050037005b
:103818000804e9000104640008057800820f5400d8
:1038280098ff3a007fb09700e10f50002c003a0053
:1038380070c928000c6702000000000071f8210020
:103848001181fb00000320000091b90001c921008b
:10385800010041000c6702000000000080f8210010
:103868001000780064006000030032000c00be0005
:10387800a47c02000000000080c828000c67020039
:1038880000000000c2f4800082bf9f00d0f48000d6
:10389800800f51000b0032000041eb00f1072000bf
:1038a8008fb9970084e1210002f279008301e900d1
:1038b80081816100808f5100faff3a0083bf9f0029
:1038c800c3f488000040eb0086e121008fbb97001d
:1038d80000f37b000000eb00f0b79f0053fd3700ba
:1038e80070c0b3008a650200000000004ffd370079
:1038f800d8f480008fb89700888f50000e003200ef
:10390800e0c828000c670200000000000fb997000b
:1039180008005100f007b2006666020000000000cf
:1039280010c928000c67020000000000d3f48000d2
:1039380083bf9f003dfd370070c0b3008a65020059
:103948000000000039fd3700c8f480000fba970066
:10395800880f52000e003200e0c828000c670200f1
:10396800000000000fbb970006005400f007b200eb
:103978006666020000000000d0c928000c6702003b
:1039880000000000c7f4800087bf9f0027fd3700b4
:1039980070c0b3008a6502000000000023fd3700f4
:1039a800c0f480000044eb0081e1210088707800b9
:1039b8000000e800f007b20080bf9f00c0f4880054
:1039c800e0c328002068020000000000c0f4800066
:1039d800b0b79f00d0f48000c1e921008848780082
:1039e80081f8210091007800e480600062003200d4
:1039f8005a0037009fb097008100e80091b79f00f8
:103a0800f48f500009fd3a00723d020000000000ea
:103a180006fd3700caf480008a00e800f107b2000a
:103a2800d0f48000808f500048003200ff4f5400cf
:103a380046003600e0c7b300804f540043003e0004
:103a48000fb997008a0f51000e003a00084078001d
:103a58008a65020000000000c0f4800083e12100b4
:103a6800887178000000e800f007b20080bf9f006e
:103a7800c0f488000040eb000fba970080717a000c
:103a8800eafc3700e0c828000c67020000000000cc
:103a98000fbb970006005500fb0720000b006000d5
:103aa8006666020000000000d0c928000c6702000a
:103ab80000000000caf480008fbb97000700e900ef
:103ac8008b0560008b0f55001100320081e1210049
:103ad8000a80400061417d001240980061407d00ed
:103ae8000004e000050032008a65020000000000c2
:103af800f0c928000c670200000000000a05e90070
:103b0800f3072000030565008b0f5500efff3a000f
:103b1800084078008a6502000000000084e1210066
:103b28000fbb970008727b008600e800f0072000b2
:103b38008080600081bf9f00c1f480008100e800a0
:103b480000806000c0f48800b8fc370070c0b30083
:103b58008a65020000000000b4fc3700b2310200a0
:103b680000000000c0fb280001002000fe7c0200cd
:103b780000000000b3043700f0b79f008043eb005b
:103b880087e79f0040c5280001002000e0af9f00a4
:103b9800f1af9f0082d7280003002000c2af9f002a
:103ba800d3af9f00ccb79f00ddb79f000fad970044
:103bb8009fad9700d0f4800081e121006141780039
:103bc8000281fb008001eb00e7072000870f51000e
:103bd800e08f59006d043e00026001006e0437005a
:103be8006a0437006904370068043700670437003f
:103bf800660437006504370064043700630437003f
:103c08006204370064043700600437005f0437003b
:103c1800610437005d0437005c0437005b0437003b
:103c28005a0437005904370058043700570437003e
:103c3800560437005504370054043700530437003e
:103c48005204370051043700500437004f0437003e
:103c58004e0437004d0437004c0437004e0437003b
:103c68002e043700ae023700280137002f01370035
:103c7800f0013700d30137004404370089023700c8
:103c8800420437004104370040043700420437003b
:103c9800e1033700fa033700c50337001203370082
:103ca80011033700100337000f0337000e033700e6
:103cb8000d0337000c0337000b0337000a033700e6
:103cc8000903370031043700300437000302370096
:103cd800c60037002d043700470037003a01370087
:103ce80030013700290437006a003700b201370075
:103cf800260437002504370024043700230437003e
:103d08002204370021043700200437006b003700f5
:103d18001e0437001d0437001c0437008d003700cf
:103d28001a04370019043700e10137001704370077
:103d3800160437001504370035013700130437001f
:103d48001204370011043700c4023700a5033700f6
:103d5800d3023700d8033700bc0337000b04370001
:103d6800070137002f003700420037008401370071
:103d780006043700310037003300370016003700db
:103d880020003700010437000004370055003700d1
:103d980022003700fd033700240037005b0037009e
:103da800fa03370034033700be013700f703370042
:103db800f60337001f00370053013700f3033700bd
:103dc800f2033700f1033700ac023700a2003700d6
:103dd800bc023700c0003700f1f907000000e0001e
:103de800ed033a00d0f48000f0b79f00c1f48000e2
:103df800b1b79f00e8033700087d0200000000000b
:103e0800e503370037fb070070f821001004e000d5
:103e1800e1033200f2f70700df03370054fa070026
:103e2800dd033700c7fa0700db0337000ffb070085
:103e3800d903370081f70700d70337007052020013
:103e480000000000d403370070f821001004e000df
:103e580005003a00a091280001002000fe7c020025
:103e680000000000cc0337005c5102000000000095
:103e7800c903370060f52100c1cfb30010c8600046
:103e880060a9280001002000fe7c0200000000005c
:103e9800c103370060f52100c1cfb30090c06000b6
:103ea8000104a0000148780060aa28000100200051
:103eb800fe7c020000000000b703370060f5210017
:103ec8001034a0002094280001002000a47c0200e7
:103ed80000000000e0c32800206802000000000085
:103ee800ad03370060f521001034a100e0922800ee
:103ef80001002000a47c020000000000e0c32800ac
:103f08002068020000000000a303370070f82100b9
:103f18001004e00005003a00a091280001002000ec
:103f2800fe7c0200000000009b033700cb62a90062
:103f3800c962a90060ab280001002000a47c02002f
:103f480000000000e0c32800206802000000000014
:103f58009103370070f821001004e00005003a00d2
:103f6800a091280001002000fe7c02000000000053
:103f78008903370060f52100104078007040600028
:103f880004003a008079280001002000fe7c02002d
:103f980000000000c962a800cb62a90060b6280032
:103fa80001002000a47c020000000000e0c32800fb
:103fb800206802000000000021e3a800b0002000f3
:103fc8006264020000000000f1042000810f50002c
:103fd80004003e000081280001002000fe7c020051
:103fe8000000000021e3a9006b0337000000e8008f
:103ff800f007b200d0f48800c2f80700fcf7070009
:10400800000678000c407800ce6502000000000031
:10401800c8002900090020000800be00a47c020096
:10402800000000000c4078006666020000000000f6
:104038000800be00a47c0200000000000c407800cc
:10404800d866020000000000e0c3280020680200d3
:1040580000000000500337000000e800f007b2003d
:10406800d0f48800a7f80700e1f707000080fb00fc
:1040780081f5210091407800706402000000000082
:10408800000678000c407800ce65020000000000b1
:10409800c8002900090020000800be00a47c020016
:1040a800000000000c407800666602000000000076
:1040b8000800be00a47c0200000000000c4078004c
:1040c800d866020000000000e0c328002068020053
:1040d800000000003003370070f821001004e000f1
:1040e80005003a0011c0b3000140780000740200d6
:1040f8000000000028033700e0a22800010020008b
:10410800fe7c0200000000002303370000fc2800aa
:1041180001002000fe7c0200000000001c69020073
:10412800000000000000fe001b033700947d020021
:10413800000000000004e0001703320011c0b300c3
:10414800a07f22000148780080e5280001002000b7
:10415800fe7c02000000000000a026008101200073
:1041680050860200000000002c64020000000000dd
:104178001c690200000000000000fe000603370072
:1041880036f80700000478000800e0000203320057
:1041980006560200000000000804e900fcff3a008f
:1041a800fd0237002df80700000478000800e00041
:1041b800f9023200ea550200000000000804e90094
:1041c800fcff3a00f402370024f8070000047800e6
:1041d8000800e000f0023200e9c328000a00be002f
:1041e800a47c02000000000022560200000000002b
:1041f8000080fb0089f607000900780020680200ab
:10420800000000000804e900f4ff3a00e202370069
:1042180070f821001004e00005003a00a091280081
:1042280001002000fe7c020000000000da023700d6
:10423800c002a900c202a80021e3a80000d02700fc
:10424800010020005086020000000000a0002000ad
:104258006264020000000000011b2000810f500072
:104268001a0036009000200062640200000000007e
:10427800712b2000810f50001400360080c42800e4
:1042880001002000a47c020000000000e0c3280018
:10429800206802000000000070f821009080fb00f8
:1042a800000320000088b9000002b00081c6210088
:1042b800610078000000010080cd28000100200086
:1042c800fe7c0200000000000d003700c002a900bb
:1042d800c202a900008f280001002000fe7c020015
:1042e8000000000040b7280001002000a47c020064
:1042f80000000000e0c32800206802000000000061
:1043080021e3a900a402370070f8210010407800ca
:104318000004e00005003a00a091280001002000f8
:10432800fe7c0200000000009b0237000080fb00ba
:10433800010320000180b9002002b00081c62100dd
:10434800610078000000010040be28000100200044
:10435800fe7c020000000000c002a900c202a90001
:1043680040b7280001002000a47c020000000000e3
:10437800e0c3280020680200000000008602370021
:1043880000cc280001002000a47c020000000000ee
:10439800cc66020000000000e005290001002000b2
:1043a800a47c020000000000e0c32800206802008e
:1043b80000000000780237002c68020000000000ae
:1043c80075023700a5f707000004780040f22800be
:1043d80001002000a47c0200000000000800780012
:1043e800746602000000000040042900010020005b
:1043f800fe7c0200000000006140b9006109b900bc
:1044080004402200450f20006033b800180902005c
:104418000000000004242400f50020006033b800e8
:10442800020902000000000050860200000000009f
:104438005902370089f707000004780040f2280085
:1044480001002000a47c02000000000008007800a1
:104458007466020000000000a0042900010020008a
:10446800fe7c0200000000006140b9006109b9004b
:1044780004402200450f20006033b80018090200ec
:1044880000000000843e2000050020006033b800d2
:10449800020902000000000050860200000000002f
:1044a8003d02370080f821001020a0003a023700b2
:1044b80070f821001004e00005003a00a0912800df
:1044c80001002000fe7c02000000000032023700dc
:1044d80046560200000000002f02370012c0b30049
:1044e800c1e92100824878000004e800f807b2001a
:1044f80081e1210061417c000204e00026023200d3
:1045080016c0b30011002000e5c3b3008043eb00e0
:10451800f407200083e12100854f510001003a0093
:10452800074378008100e800008140000401610031
:10453800634179000204e000f7ff3a00c0e9210076
:1045480006487800fa8f50000300340011c0b30009
:104558000148780010023700c0e921001004e0008b
:104568000d023a00d8f48800a1f60700000478008c
:10457800d0f4800080007800f107b20082e12100c9
:1045880062c17800d1c3b300814f510022003a00c4
:104598008800e900e28f50001b003e000000e800a0
:1045a800f007b200d0f48800010178007811b90052
:1045b800c0e9210080004100010178000000eb0003
:1045c8008041eb00036978000000e800f80f500014
:1045d800fcff3a00d0f4800083e12100e4c3b3007b
:1045e800f507200003003700826878000000e80023
:1045f8000500600063417800844f5100faff3a00db
:10460800d0f48800e401370011c0b300c0e92100ec
:1046180001487800e00137000800e00015003a0082
:10462800dde921001c00200048ca280089c82800ac
:104638000c40780066660200000000000800780060
:104648000c670200000000000d0078000c670200f3
:104658000000000009007800206802000000000047
:104668000c06e800f8864600e40f5600f0ff3a0012
:10467800c90137000800e900e20f500005003e00bc
:10468800e0c32800206802000000000038f7880016
:10469800c101370011c0b300c0e92100014878000a
:1046a800bd0137000000e800f8072000080060009e
:1046b800d0f488004ef607008004780011f7070050
:1046c800d0f480000804600080e12100e0407c0014
:1046d80090c2b30080cf50000d003a0070f821005e
:1046e8009080fb00000320000088b9007c00400097
:1046f80081c62100e100780009007800010001006e
:10470800e0c328002068020000000000a201370072
:1047180011c0b300c0e92100014878009e013700ac
:1047280012c0b300c1e92100824878008000e80087
:10473800f107b20082e12100e2c078000104e00044
:10474800950132000080e80015c0b30024c2b30010
:104758000043eb00f307200084cf500001003a002b
:104768008642780083006000e2c078000000e8001c
:104778000104e000f8ff3a00c0e92100054878008c
:104788000504e00084013a00a0f22800010020009e
:10479800a47c02000000000020c2b3008a65020069
:1047a80000000000d1f480008100e800f107b200a9
:1047b80080e1210060c0780022c2b300824f50001f
:1047c8001e00320088e1210069f521000987e80010
:1047d8007cf821008dc62100d1f488008a6502008a
:1047e80000000000d0f48000684078000080fb00e2
:1047f80019417800e8406100030032009e407800cb
:1048080070640200000000001c81fb00010320000e
:104818000191b90068014100ed0079000100010033
:10482800d1f480008100e800f107b20068c0780088
:1048380022c2b300824f5000e7ff3a00d1f488004b
:1048480020c2b3008a65020000000000e0c328000f
:1048580020680200000000004f01370070f82100b6
:104868009080fb00000320000088b90082c6210068
:1048780062007800000001004701370070f821004d
:104888009080fb00000320000088b9000080e80049
:1048980081c6210061007800000001003e01370058
:1048a80070f821009080fb00000320000088b90008
:1048b8006400400081c6210061007800000001000a
:1048c8003501370070f821009080fb0000032000bc
:1048d8000088b9006600400081c6210061007800a8
:1048e800000001002c013700a0f228000100200080
:1048f800a47c020000000000bdf5070080067800d7
:10490800d0f480000000e900f007b200d0f488007d
:1049180052f607000006e80065f607000000e00010
:104928004c00320081f5210080487800e80f5000e3
:10493800030034000180e9001054a000450037004e
:1049480060f521001054a100420037000d007800e6
:10495800a46802000000000003c2b3001ec061008a
:1049680005003a0086c0b30084f52100944f130077
:1049780005003a000b00370000c1b30087f521009d
:10498800974f100007003200b0c3b3008a650200d9
:104998000000000081f521001140780066660200e1
:1049a800000000001e4178006840610006003200e7
:1049b80083f52100934078000d00780070640200b0
:1049c800000000008006780074f821009480fb0045
:1049d800000320000088b9006800400086c6210056
:1049e800e60078000d00780001000100e0b79f00a4
:1049f80000c2b3008a6502000000000007c4b300cb
:104a08001ec06300160032000800be00a47c02002d
:104a1800000000009e40780068c060000600320078
:104a280082f52100924078006fb097007064020010
:104a380000000000e0b79f006fb09700a468020074
:104a48000000000000c2b3008a65020000000000f8
:104a5800030037006ef5210008f328000900200044
:104a68000c06e900b9ff3a00e0c3280020680200fc
:104a780000000000c800370000f3280001002000f3
:104a8800a47c02000000000039f40700c0ef9f007a
:104a9800f2f507000004780005f607000000e000c2
:104aa8000900320081f5210080487800e80f5000a5
:104ab800030034000180e9001054a0000200370010
:104ac80060f521001054a100cfe997000304e0002d
:104ad8000400320060f821001042780084e79f004b
:104ae8000348e9000800e000270032007df82100b3
:104af8000e03200069f521000986e8001d80fb00ef
:104b08000e80b9006a00400086c621006600780061
:104b18000000010099437800e8c0630003003200f8
:104b28009c4078007064020000000000a468020045
:104b38000000000001c2b30019c0600004003a0080
:104b480082c0b3009c4f110004003a0009003700ee
:104b580003c1b3009ccf110006003200b0c3b300fc
:104b68008a650200000000001c40780066660200aa
:104b78000000000000c2b3008a65020000000000c7
:104b88000804e900ddff3a004fea97000404e0005a
:104b98000300320060f821000fe397000648780010
:104ba800e0c3280020680200000000007a003700f7
:104bb80060f3280001002000fe7c020000000000d5
:104bc80070f821009080fb00000320000088b900e5
:104bd8006c00400081c621006100780000000100df
:104be8006d003700c0f3280001002000fe7c0200a1
:104bf8000000000070f821009080fb0000032000f6
:104c08000088b9006e00400081c62100610078006c
:104c1800000001006000370040d628000100200095
:104c2800fe7c02000000000070f821009080fb006c
:104c3800000320000088b9007000400081c62100f0
:104c4800610078000000010053003700e0d628001a
:104c580001002000fe7c02000000000070f8210026
:104c68009080fb00000320000088b900720040001b
:104c780081c621006100780000000100460037006d
:104c8800a0d5280001002000a47c0200000000003c
:104c980070f821009080fb00000320000088b90014
:104ca8007400400081c62100610078000000010006
:104cb800daf307003800370068f5070000047800c9
:104cc8004fa89700dfa89700a47c0200000000000e
:104cd80008007800a4680200000000000800e00056
:104ce8000a00320079f821008cc621009980fb0067
:104cf800000320000088b900760040006c007800ae
:104d0800000001000804e900f8ff3a00e0c32800a9
:104d180020680200000000001f0037004ff5070060
:104d2800000478002fa89700bfa89700a47c020071
:104d3800000000000800e0000f00320079f82100b0
:104d48008cc621009980fb00000320000088b90070
:104d5800780040006c007800000001000080fb0033
:104d6800aef3070000c2b3008a650200000000002d
:104d78000804e900f3ff3a006fa89700ffa897001e
:104d8800fe7c0200000000000300370011c0b300e1
:104d9800c0e9210001487800d0f480000000e80054
:104da800f007b200d0f488000000eb00c1e9210050
:104db8001104e0001800320060ad28000100200056
:104dc800a47c020000000000d0f48000ffb397002c
:104dd800808f5300040031000740500066660200cf
:104de800000000000600370001c8b3000140400081
:104df800efe89700014050006666020000000000de
:104e0800c0e921000048eb00e0c328002068020048
:104e18000000000010002000c1f48000d2f48000df
:104e2800810f5100050032000000e00061fb3200f4
:104e38004fb69700dfb69700020037004fb69700cd
:104e4800dfb697003fb19700d2f48800c2f488001b
:104e5800e0f7370000e08000018021006141780020
:104e680031c8b300814f51000e003a000000e8003d
:104e780000e08800018021006141780001ceb30084
:104e8800814f510007003e00018021008100400051
:104e980002ceb3000000e800d14f1100fdff36003c
:104ea80000e088000000060002802100124278001d
:104eb8000041eb0003ceb300834f520023003600bd
:104ec800128021001281fb004811dd00238021009f
:104ed8009381fb0003014100820f500010003a004b
:104ee8000b0037008202e80063c37a004833dd0014
:104ef8008282e800e3c27a008582fb0085024300d3
:104f0800850f5000030032000442b000080037004b
:104f18000001eb008208780012c0b3000b003700d4
:104f28000442b0000001eb000380210007ceb3006b
:104f38000482fb00630242000401410063427900dd
:104f4800874f5200e7ff3e000041eb000240780027
:104f580000000600d6f480001041780011c0b300ac
:104f68000204e0001500320081e12100e1407b00ed
:104f7800814f51000700320003003700e5c1780077
:104f8800834f510006003200d6f488008040eb00c1
:104f98000a00370086007800f407200085e1210028
:104fa8008100e80084806000d1f4880050417800d6
:104fb8000204e000f1ff3a0011c0b300014078009c
:104fc80000000600889fbe008a1f780049ae2800ae
:104fd8000004eb002a02200059007800ddff0700da
:104fe8000004e0000300320000c8b30000404400a1
:104ff800040037000804e8008a0f5400f6ff3a005e
:105008000040eb004f0578004f04be00000006008a
:10501800889fbe008a1f78000000eb0000e088002f
:1050280000802100104478000804e0002f003200be
:105038006aae2800800478000804e0000400350007
:10504800084078008a65020000000000210037004f
:1050580000ceb300804f54001200360000a2280092
:10506800206802000000000000e080008080e80066
:105078000000e800694178004811dd0069c0780047
:105088000080fb000000410001e088007466020017
:105098000000000000c2b3008a65020000000000a2
:1050a8000c00370000c2b3008a650200000000004f
:1050b8000884fb000808b100080444006a007c006a
:1050c8000c6702000000000000c2b3008a650200fd
:1050d8000000000000e080000000e80000e0880018
:1050e800694478000804e000d3ff3a0000a22800d1
:1050f800206802000000000000e080000000e900d5
:10510800746602000000000000f028000100200082
:10511800fe7c0200000000004f0578004f04be002e
:1051280000000600881f780071c9b300814f500045
:105138003a0032000a003e00e3c05000814f5000a0
:105148001600320081c0e800814f50002a0032006a
:10515800e3c05000814f500048003a001800370063
:10516800a1c9b300814f50003600320004003e0050
:1051780081c0e900814f500040003a0039003700f3
:10518800b1c9b300814f50003100320081c0e8003e
:10519800814f500039003a001300370070f82100a1
:1051a8009080fb00000320000088b9006a004000de
:1051b80081c621006100780000000100300037003e
:1051c80070f821009080fb00000320000088b900df
:1051d8006800400081c62100610478009100070042
:1051e80008000100260037002256020000000000d7
:1051f8000080fb002200370070f821009080fb003f
:10520800000320000088b9007400400081c6210016
:1052180061007800000001001900370070f82100d3
:105228009080fb00000320000088b900780040004f
:1052380081c6210061007800000001000080fb00a9
:105248000f00370010168000610060000c00370066
:10525800501680004b00de00610060000080ea000c
:105268000700370021e3a800c000200062640200a4
:105278000000000021e3a900010037000000eb0056
:105288004f0478000000060002e080000080210042
:10529800e040790080c2b30080cf50000c003a0093
:1052a8000201e80002e088005e00070001e08000db
:1052b80002802100e2c1780092c2b30082cf51007f
:1052c8002b003a008100e80001e088002800370040
:1052d800f0cbb30000c04000f94f500008003e007a
:1052e8008180fb001104b1008180400080c0210052
:1052f800608078000201e80002e088001c003700a6
:1053080000c8b30080cf500006003e0000cdb300b7
:1053180000c04000e94f5000070036000000eb00d5
:10532800130037000201e80002e08800014078001d
:105338007cff07000e003700038021008301410035
:105348000000eb0006cdb3006a02b9000180fb0043
:10535800040040000003b1000201e800d3407800d7
:1053680006c24000e94f5200f7ff360002e088000d
:1053780000000600889fbe008a1f7800c2ff070051
:10538800800478000a802100a8c2b30001e08000f0
:105398006ac078008100e80001e08800884f50006a
:1053a8000c00320004003e0061c2b300814f50007f
:1053b80018003a0011003700f1c2b300814f5000c5
:1053c80008003200c1c7b300814f500011003a00f5
:1053d8000d003700acff070000c8b9008004780052
:1053e800eaff3700a8ff07008001780011000900d4
:1053f8008304d80080047800e4ff3700a2ff070088
:1054080080846400e1ff37009fff07008904700073
:10541800deff3700090078004f0578004f04be0012
:1054280000000600889fbe008a1f7800d1ff070091
:10543800000478000a802100c9c3b30001e080009d
:105448006ac078008100e80001e08800894f5000b8
:105458002b00320007003e00b1c2b300814f50005c
:105468000e00320081c0e800814f50004e003a0023
:1054780007003700d2c3b300824f50004300320008
:105488000241e800824f500047003a00060037000a
:10549800b8ff070000045400e8ff3700b5ff070015
:1054a80000044400e5ff37008100e800eac0780006
:1054b800d0c3b30080cf50000a003a00adff070008
:1054c80011002000880f5000010034008000eb001c
:1054d8000104780000e080000000e80000e0880097
:1054e800d6ff3700a3ff070011002000880f5000e7
:1054f800010035008000eb0001047800cfff370081
:105508008100e8006ac07800e1c3b300814f500011
:105518000a003a0097ff07000804680008f0a7008f
:105528000804ea000804ea004f44de0000e08000b6
:105538000000e80000e08800c0ff3700d1c3b300d6
:10554800814f50000a003a008aff0700110020002e
:10555800880f500001003d008000eb000104780036
:1055680000e080000000e80000e08800b3ff37009a
:1055780080ff070011002000880f500001003c0048
:105588008000eb0001047800acff370079ff0700ca
:105598000804680008f0a7000804ea000804e90005
:1055a8004f44de00a5ff3700080078004f0578005b
:1055b8004f04be0000000600f0874700889fbe0029
:1055c8008a9fbe008c9fbe008e1f78000000eb00f3
:1055d80000e0880010e0880020e0880030e08800c3
:1055e80080f821001000a00080c0210019000900e7
:1055f8000018eb008000eb000006eb008005eb00d4
:1056080009802100edc8b3002ac2b3000100e00000
:105618000e003a0000e08000e9457800f1cdb300c3
:1056280081cf5500340336008b85fb000b0eb1008b
:105638008000e80069c678004866dd000080e80060
:10564800694078000080fb000c06700002e08000d2
:10565800e301410069c079000080fb008000eb0095
:105668000008b1000180b10014022000840f50002e
:10567800e08f5800f9023e00006001002100370069
:105688002e003700f5023700f402370055003700c6
:105698006100370079003700890037008d00370036
:1056a800ce00370000013700ec0237004101370017
:1056b80085013700ce013700df013700d1013700ff
:1056c800f9013700ea01370005023700e302370025
:1056d800870237006c023700e0023700df0237002c
:1056e8002a0237001b023700a8023700b50237002c
:1056f8000a0237003702370052023700c602370065
:10570800d40237006600410000e0880064014100cf
:10571800694479000884fb001804b10041ff0700c0
:105728000804440081c0210080307c00c9fd0700c6
:105738008000eb000044eb00cc023700640141001c
:1057480002e0880037ff07000000e00009003a0087
:1057580001e0800069c0780032c8b300824f500071
:105768001b00320002ceb300824f50000e003600fc
:10577800de02370000e08000e94178000000e80020
:1057880000e088008000eb000044eb0022c8b30072
:1057980082cf5100b5023a006300500000e0880053
:1057a80011002000b10237000981400033c8b3005e
:1057b80004ceb3008100e80052407800834f5000c7
:1057c80003003200844f5000faff3600c60237004b
:1057d8008180e90001e08800110020000044eb000e
:1057e800a20237006401410002e088000dff0700b3
:1057f800fc805700acfd07008000eb0068c0b300d8
:105808000004e00099023200afb2970005e088007a
:105818000044eb00950237006401410002e0880073
:1058280020e080008000eb0078c0b300e90f500052
:105838008e023e0080004000c3c3210081804100e9
:105848000201e9008b0841000000e80020e0880020
:10585800f4fe0700fc80570093fd07008000eb0072
:1058680068c0b3000004e000800232002fb0970047
:1058780000e088000044eb007c02370010a22800fa
:105888000c6702000000000020e080008000eb00b0
:1058980088c0b3000000e000740232000000e90094
:1058a80020e0880000004000c1c32100e10078002a
:1058b80001e088008000eb000044eb006b02370039
:1058c8008381450003e088008000eb000044eb0082
:1058d800660237006401410002e0880088f8210070
:1058e800270037008a4f500011003a008100e80075
