:020000040000fa
:080000000020040000000000d4
:020000040000fa
:0400080004230000cd
:020000040000fa
:04000c0004230000c9
:020000040000fa
:0400100004230000c5
:020000040000fa
:0400140004230000c1
:020000040000fa
:0400180004230000bd
:020000040000fa
:04001c0004230000b9
:020000040000fa
:0400200004230000b5
:020000040000fa
:0400240004230000b1
:020000040000fa
:0400280004230000ad
:020000040000fa
:04002c0004230000a9
:020000040000fa
:0400300004230000a5
:020000040000fa
:0400340004230000a1
:020000040000fa
:04003800042300009d
:020000040000fa
:04003c000423000099
:020000040000fa
:040040000423000095
:020000040000fa
:040044000423000091
:020000040000fa
:04004800042300008d
:020000040000fa
:04004c000423000089
:020000040000fa
:040050000423000085
:020000040000fa
:040054000423000081
:020000040000fa
:04005800042300007d
:020000040000fa
:04005c00e42200009a
:020000040000fa
:040060000423000075
:020000040000fa
:040064000423000071
:020000040000fa
:04006800042300006d
:020000040000fa
:04006c000423000069
:020000040000fa
:040070000423000065
:020000040000fa
:040074000423000061
:020000040000fa
:04007800042300005d
:020000040000fa
:04007c000423000059
:020000040000fa
:040080000423000055
:020000040000fa
:040084000423000051
:020000040000fa
:04008800042300004d
:020000040000fa
:04008c000423000049
:020000040000fa
:040090000423000045
:020000040000fa
:040094000423000041
:020000040000fa
:04009800042300003d
:020000040000fa
:04009c000423000039
:020000040000fa
:0400a0000423000035
:020000040000fa
:0400a4000423000031
:020000040000fa
:0400a800042300002d
:020000040000fa
:0400ac000423000029
:020000040000fa
:0400b0000423000025
:020000040000fa
:0400b4000423000021
:020000040000fa
:0400b800042300001d
:020000040000fa
:0400bc000423000019
:020000040000fa
:0400c0000423000015
:020000040000fa
:0400c4000423000011
:020000040000fa
:0400c800042300000d
:020000040000fa
:0400cc000423000009
:020000040000fa
:0400d0000423000005
:020000040000fa
:0400d4000423000001
:020000040000fa
:0400d80004230000fd
:020000040000fa
:0400dc0004230000f9
:020000040000fa
:0400e00004230000f5
:020000040000fa
:0400e40004230000f1
:020000040000fa
:0400e80004230000ed
:020000040000fa
:0400ec0004230000e9
:020000040000fa
:0400f00004230000e5
:020000040000fa
:0400f40004230000e1
:020000040000fa
:0400f80004230000dd
:020000040000fa
:0400fc0004230000d9
:020000040000fa
:0401000004230000d4
:020000040000fa
:0401040004230000d0
:020000040000fa
:0401080004230000cc
:020000040000fa
:04010c0004230000c8
:020000040000fa
:0401100004230000c4
:020000040000fa
:0401140004230000c0
:020000040000fa
:0401180004230000bc
:020000040000fa
:04011c0004230000b8
:020000040000fa
:0401200004230000b4
:020000040000fa
:0401240004230000b0
:020000040000fa
:0401280004230000ac
:020000040000fa
:04012c0004230000a8
:020000040000fa
:0401300004230000a4
:020000040000fa
:0401340004230000a0
:020000040000fa
:04013800042300009c
:020000040000fa
:04013c000423000098
:020000040000fa
:040140000423000094
:020000040000fa
:040144000423000090
:020000040000fa
:04014800042300008c
:020000040000fa
:04014c000423000088
:020000040000fa
:040150000423000084
:020000040000fa
:040154000423000080
:020000040000fa
:04015800042300007c
:020000040000fa
:04015c000423000078
:020000040000fa
:040160000423000074
:020000040000fa
:040164000423000070
:020000040000fa
:04016800042300006c
:020000040000fa
:04016c000423000068
:020000040000fa
:040170000423000064
:020000040000fa
:040174000423000060
:020000040000fa
:04017800042300005c
:020000040000fa
:04017c000423000058
:020000040000fa
:04018000c822000091
:020000040000fa
:040184000423000050
:020000040000fa
:04018800042300004c
:020000040000fa
:04018c000423000048
:020000040000fa
:040190000423000044
:020000040000fa
:040194000423000040
:020000040000fa
:04019800042300003c
:020000040000fa
:04019c000423000038
:020000040000fa
:0402080004230000cb
:020000040000fa
:04020c0004230000c7
:020000040000fa
:0402100004230000c3
:020000040000fa
:0402140004230000bf
:020000040000fa
:0402180004230000bb
:020000040000fa
:04021c0004230000b7
:020000040000fa
:0402200004230000b3
:020000040000fa
:0402240004230000af
:020000040000fa
:0402280004230000ab
:020000040000fa
:04022c0004230000a7
:020000040000fa
:0402300004230000a3
:020000040000fa
:04023400042300009f
:020000040000fa
:04023800042300009b
:020000040000fa
:04023c000423000097
:020000040000fa
:040240000423000093
:020000040000fa
:04024400042300008f
:020000040000fa
:04024800042300008b
:020000040000fa
:04024c000423000087
:020000040000fa
:040250000423000083
:020000040000fa
:04025400042300007f
:020000040000fa
:04025800042300007b
:020000040000fa
:04025c000423000077
:020000040000fa
:040260000423000073
:020000040000fa
:04026400042300006f
:020000040000fa
:04026800042300006b
:020000040000fa
:04026c000423000067
:020000040000fa
:040270000423000063
:020000040000fa
:04027400042300005f
:020000040000fa
:04027800042300005b
:020000040000fa
:04027c000423000057
:020000040000fa
:040280000423000053
:020000040000fa
:04028400042300004f
:020000040000fa
:04028800042300004b
:020000040000fa
:04028c000423000047
:020000040000fa
:040290000423000043
:020000040000fa
:04029400042300003f
:020000040000fa
:04029800042300003b
:020000040000fa
:04029c000423000037
:020000040000fa
:0402a0000423000033
:020000040000fa
:0402a400042300002f
:020000040000fa
:0402a800042300002b
:020000040000fa
:0402ac000423000027
:020000040000fa
:0402b0000423000023
:020000040000fa
:0402b400042300001f
:020000040000fa
:0402b800042300001b
:020000040000fa
:0402bc000423000017
:020000040000fa
:0402c0000423000013
:020000040000fa
:0402c400042300000f
:020000040000fa
:0402c800042300000b
:020000040000fa
:0402cc000423000007
:020000040000fa
:0402d0000423000003
:020000040000fa
:0402d40004230000ff
:020000040000fa
:0402d80004230000fb
:020000040000fa
:0402dc0004230000f7
:020000040000fa
:0402e00004230000f3
:020000040000fa
:0402e40004230000ef
:020000040000fa
:0402e80004230000eb
:020000040000fa
:0402ec0004230000e7
:020000040000fa
:0402f00004230000e3
:020000040000fa
:0402f40004230000df
:020000040000fa
:0402f80004230000db
:020000040000fa
:0402fc0004230000d7
:020000040000fa
:0403000004230000d2
:020000040000fa
:0403040004230000ce
:020000040000fa
:0403080004230000ca
:020000040000fa
:04030c0004230000c6
:020000040000fa
:0403100004230000c2
:020000040000fa
:0403140004230000be
:020000040000fa
:0403180004230000ba
:020000040000fa
:04031c0004230000b6
:020000040000fa
:0403200004230000b2
:020000040000fa
:0403240004230000ae
:020000040000fa
:0403280004230000aa
:020000040000fa
:04032c0004230000a6
:020000040000fa
:0403300004230000a2
:020000040000fa
:04033400042300009e
:020000040000fa
:04033800042300009a
:020000040000fa
:04033c000423000096
:020000040000fa
:040340000423000092
:020000040000fa
:04034400042300008e
:020000040000fa
:04034800042300008a
:020000040000fa
:04034c000423000086
:020000040000fa
:040350000423000082
:020000040000fa
:04035400042300007e
:020000040000fa
:04035800042300007a
:020000040000fa
:04035c000423000076
:020000040000fa
:040360000423000072
:020000040000fa
:04036400042300006e
:020000040000fa
:04036800042300006a
:020000040000fa
:04036c000423000066
:020000040000fa
:040370000423000062
:020000040000fa
:04037400042300005e
:020000040000fa
:04037800042300005a
:020000040000fa
:04037c000423000056
:020000040000fa
:040380000423000052
:020000040000fa
:04038400042300004e
:020000040000fa
:04038800042300004a
:020000040000fa
:04038c000423000046
:020000040000fa
:040390000423000042
:020000040000fa
:04039400042300003e
:020000040000fa
:04039800042300003a
:020000040000fa
:04039c000423000036
:020000040000fa
:104000004f4a2300ae7e24000e018800000000000d
:10401000000020000000e00002003200000120004b
:104020002002880014000700790107000000e0006a
:1040300003003a00006d2b00010020000200370051
:104040000000200001002000810f700001003200fc
:1040500014000700000020000000e0000200320011
:10406000000002000000000058c002000000000034
:104070000040da000000fe004440a9000055200086
:104080000000e0000300320000002000a0018800d2
:104090004440a800000006008a1f78008b1f7800ab
:1040a0000000060091018800800478000000eb0009
:1040b0001a003700e284440032a0b4009905ba0027
:1040c000e284440032a0b4009906ba00e2844400bd
:1040d00032a0b4000006eb00476fde00fd07b2001f
:1040e000636ce10003003a00ebff07000000eb0007
:1040f0000a003700606ce10004003a00005deb004c
:104100008b05e900fdff3e00040037006168e10017
:10411000010032000086eb000b00070019c7ba004f
:104120001905ba000e04e00003003a000a00e0009e
:10413000e0ff3a0000000600fe07b2009e01880082
:104140008a047800f5ff3700395dba008b05e90075
:104150000c003200295dba008b05e900080032002e
:104160000c00e00003003a00e284440032a0b400f6
:10417000f5ff370019ddba008b05e900faff3a00b8
:104180008904e800e184440032a0b4000000060085
:1041900022a204000000000032a20400000000007f
:1041a0002aa20400000000001aa20400000000007f
:1041b00092a2040000000000366b04000000000022
:1041c000cc6b040000000000ea7004000000000056
:1041d0005870040000000000d86b040000000000cc
:1041e0002e6b040000000000a46b0400000000001f
:1041f000326c040000000000fc71040000000000ac
:10420000ae6b040000000000a67204000000000075
:10421000ca71040000000000927104000000000058
:10422000a06e0400000000005a6b040000000000b3
:1042300098700400000000003e6b040000000000c5
:104240004a6e040000000000b8a404000000000052
:1042500086940400000000003e940400000000006a
:104260008ec20400000000007cc2040000000000b8
:104270006ac204000000000058c2040000000000f0
:1042800048c20400000000002ac204000000000030
:104290003ec204000000000036c20400000000001e
:1042a0004e90040000000000ca8f040000000000cf
:1042b000c28f040000000000f68f04000000000020
:1042c000e88f040000000000e08f04000000000000
:1042d000d68f040000000000d08f04000000000012
:1042e0009290040000000000049004000000000010
:1042f0003e90040000000000449004000000000014
:10430000bc79040000000000d07904000000000027
:10431000b6750400000000006e7504000000000087
:10432000e279040000000000ee78040000000000c4
:104330003a760400000000002c7804000000000021
:10434000e878040000000000687a04000000000023
:10435000be750400000000004c7f04000000000057
:104360009a7f040000000000e67e040000000000c8
:10437000ae7e040000000000c680040000000000c3
:10438000f47f04000000000094800400000000009e
:10439000b48004000000000032820400000000002d
:1043a000ce7f040000000000326304000000000023
:1043b0002c630400000000003863040000000000cb
:1043c000d268040000000000e4680400000000005f
:1043d000d066040000000000cc6304000000000070
:1043e000ae650400000000008c67040000000000bf
:1043f00044650400000000005e630400000000004b
:104400003ab304000000000050b3040000000000b4
:1044100032b30400000000002cb3040000000000d0
:10442000f2c5040000000000fac50400000000000e
:104430000ac604000000000002c6040000000000dc
:10444000eac504000000000012c6040000000000dd
:10445000e4c50400000000002cb4040000000000cb
:1044600098b304000000000018b40400000000002d
:1044700052b404000000000066b304000000000015
:104480009ab904000000000086b904000000000092
:10449000aeb904000000000076b90400000000007e
:1044a0006eb9040000000000fab90400000000002a
:1044b000c8ba040000000000e2ba040000000000d6
:1044c000c0b90400000000004ab104000000000070
:1044d0003ab104000000000076b1040000000000c2
:1044e0002ab104000000000030b104000000000008
:1044f0005cb40400000000006ab404000000000086
:1045000042b504000000000096b504000000000061
:1045100078b40400000000007eb404000000000035
:10452000ca65040000000000b8b4040000000000e8
:10453000f09e040000000000149f04000000000032
:10454000809f040000000000289f0400000000007d
:1045500002a0040000000000409e040000000000d3
:10456000e49e040000000000ea9e04000000000039
:1045700090a00400000000004acb040000000000ee
:1045800046cb04000000000024c20400000000002c
:104590003600f800809fbe00829fbe00849fbe0050
:1045a000869fbe0070980200000000008ec0a90027
:1045b0004f03be004f02be004f01be004f00be00c1
:1045c0003600f90000400600809fbe00821f780080
:1045d00085a0a90000188000d0a389000000eb008e
:1045e000c1a3810002188000810f510002003e002b
:1045f000c04723001080fb00f00d88004f017800b9
:104600004f00be00004006000040da000000fe003f
:104610000000050003f0a200889fbe008a9fbe0034
:104620008c1f780059010700600133006450e100dd
:104630004f0032006420e1005200320003826c001f
:1046400007003b000905d0000306d000820f54008c
:104650000c065d000200390002003200890178007a
:10466000030678008582550004003d000003fd002c
:104670008103fd008502ea008b854200840f7200f1
:1046800002003b0060001000e08018006011b800dc
:104690000005eb007a28e1000a00390006007800e6
:1046a000c75ddd00f707b200878075002d00370079
:1046b000828171000a017800610560008180d1006b
:1046c0000080d3008502e900f9ff3b0006044000aa
:1046d0008784480002003b0060041400e0841c0052
:1046e0000988a300070032008a817100828171006d
:1046f000610164008904d1000884d3008b05e800bf
:10470000170037000978a30013003a000b00e000ff
:10471000130034008b05e9000804440089844c0030
:104720000a4474000978a3000d003a000b00e00071
:10473000070034008b05e9000804440089844c001c
:1047400001003a000b0020000978a300f7ff3200b7
:104750000001eb0002003700828171000a0178003d
:10476000cf0007000cf0a70001f0a00018013700ef
:104770006420e10002003a00838f6c0018013300ce
:104780000801be000200be0011013700889fbe0074
:104790008a9fbe008c1f7800fc00070003013300d5
:1047a00003866c006450e1002e0032006420e100ba
:1047b000330032006150e1002f0032006120e1003f
:1047c0003100320085855500eb07b000090020005c
:1047d00008042000050037000804440089844c00c8
:1047e0000a0031000603430087834b000001530099
:1047f00081815b00f8ff33000203be000800a000c7
:104800000804440089844c00f6ff3900c639dd00f5
:104810008301730001003200130020008904d100dd
:104820000884d3000998a300050032000800a700ff
:104830000300a0008904d1000884d3008b05e800a0
:104840008904d1000884d3000001eb000281d2006a
:104850009300070001f0a1000cf0a70001f0a000f8
:10486000db0037006420e100dd0032000801be00fb
:104870000200be00f7ff37006120e100d8003200df
:104880006000b800f3ff37000000200001f82700a7
:10489000f0ff3700839f68000100e00002003d0048
:1048a00060001000e08018000300e00002003d00fe
:1048b00060011100e0811900000107004f00e000d5
:1048c00002003b0060001000e080180000000600bd
:1048d00014002000d9013700f4ff2f00d701370062
:1048e0000003be00940007006011b8000470a70028
:1048f00007f0a10007f8a30017003a006509b1000e
:104900000d0032000d003500860220000628e1006f
:1049100003003500030028006000b8000200050015
:104920000000400081804800020149008381490065
:104930008502e900faff3a0000000600f88f420005
:10494000050034008100d1000080d3008502e8001a
:10495000fcff3a00000006006011b8008000eb0088
:10496000000005000001be00730007000470a700ee
:1049700003f0a10003f8a30013003a006509b10099
:1049800010003200090035006928e10002003500fe
:104990000100280000000500000040008180480060
:1049a0008502e900fcff3a0000000600f88f420093
:1049b000050035008100d1000080d3008502e800a9
:1049c000fcff3a00000006008000eb00000005003c
:1049d0004f89de0082017800b3013700889fbe0056
:1049e0008a9fbe0000827000040271000482710080
:1049f000260032000004be000200be006011b800b4
:104a00006b092000950220000182cf000a003900c6
:104a10000541b1000082cf00070039000541b10017
:104a20000982cf00040039000541b1000882cf009f
:104a3000010039000541b100054252001200320068
:104a40000a003b0082817100610164008100d10095
:104a50000080d3008984d3000884d3008b05e8004c
:104a60000442e800f7ff3a0007003700080444005a
:104a700089844c0000004800818048008b05e900d3
:104a80000442e900f9ff3a00050007004f05be00a7
:104a90004f04be00000006006011b800cfff3700d1
:104aa00081002000618055000b003d000b002000bc
:104ab00061fe2f000100e1001d00340082817100c1
:104ac000610164008904d1000884d3000000e8007b
:104ad000faff3a00710020006100640003007000da
:104ae000020060000900320061044400e0844c00d0
:104af0000988a500050032008b05e8006808e10080
:104b000002003a008904d1000884d300f20f20008b
:104b10000258e10005003d00c75ddd00f907b20065
:104b20008980750008007800000006000bf8270057
:104b30008b00780000000500c70ade00f107b20014
:104b4000f50fb20008003200e1cf4200020032004f
:104b50000170a00024000500810f700001003200e8
:104b60000408050044000500810f700002003a00af
:104b7000140005008502e9000000400081c04800e3
:104b8000fcff3b000170a000240005000004be00f3
:104b9000e9ff07000003be000405be000200be00de
:104ba000e5ff0700844f7500000006000200be000c
:104bb0006450e100050036006420e1000200360088
:104bc0000968a30001003a000800be000160a000cf
:104bd0004f0678004f05be004f04be0000000600df
:104be000f0ff2f00f1ff2700f9ff3700889fbe007c
:104bf0008a9fbe008c1f7800e4ff0700ebff3300a4
:104c000003866c006450e100240032006420e1005f
:104c1000270032006150e100220032006120e100f3
:104c2000210032008b854200eb07b1000134b8004f
:104c3000003ab8000804420089844a00013ab800ea
:104c40000030b8008880400009014a0004003300a9
:104c50000000400081804800020149008b05e90006
:104c6000c909dd008301700001003200130020003b
:104c7000c814de004814dd004709de001200b2004f
:104c8000c808de000884700085ff070001f0a1005d
:104c90000cf0a70001f0a000cdff37006120e1007b
:104ca000cfff32000801be000200be00f7ff370050
:104cb0006150e100fcff3a00c9ff37006022b800f4
:104cc000060220000000d0008180d2000482d200c1
:104cd0008582d2000000a0000202520083825a00a6
:104ce000030031000202420083824a000000a1005a
:104cf0000603e900f3ff3a0000000600efff07009b
:104d00000400be0000000600889fbe008a9fbe000f
:104d100030044200b0844a0030054b0090854b00bf
:104d20006000b1000898be000a90be000440e10097
:104d300005c8e10006d0e10007d8e100020031001b
:104d4000680040001008e8004f05be004f04be0098
:104d500000000600889fbe008a9fbe003004be008f
:104d60002005be000418540005985c0006185d007c
:104d700007985d00110020000440e10005c8e10033
:104d800006d0e10007d8e100010039008000eb0007
:104d9000108810004f05be004f04be000000060042
:104da0001200fa00889fbe008a9fbe008c9fbe0042
:104db000e0b79f00f1b79f0082bf9f0093bf9f00a5
:104dc0000605be000404be000000eb00d0b79f0043
:104dd000c0b79f00b0b79f00a0b79f0090b79f00db
:104de0000006eb005fb19700cfb097008201410051
:104df0003fb097000200e00004003d0037000700cc
:104e00007e805700c0ff0700030037003300070013
:104e10007e805700cfff0700dfb697000d00e0004f
:104e20000c0035006fb29700ffb297000fbb9700e0
:104e30009fbb970010002000010020006011b80007
:104e40000002720081827200020373008383730088
:104e50001b0007000c06e80001042000810f56002b
:104e6000e0ff3a000d00e00004003d000802be0033
:104e70000a03be007e805700a3ff07005fa89700cb
:104e80000000e00005003a001fb29700afb29700a3
:104e90003fb39700cfb39700090007006fb09700aa
:104ea000ffb097000fb997009fb997004f06be005b
:104eb0004f05be004f04be000080fa00000006004f
:104ec0000100070000000600a4b79f00b5b79f00cf
:104ed000c6b79f00d7b79f00000006004f09de004d
:104ee00082817100b3b79f004f01de0081804000d6
:104ef00082807000a1b79f008fb097004f09de003d
:104f0000000040000200700090b79f007fa897004b
:104f10004f01de00818040008280700081b79f00d9
:104f20000d0007004f3ade00000040000400700052
:104f3000f0af9f00080007000402420085824a008b
:104f400006034b0087834b00dfff07000802be000b
:104f50000a03be00000006002fb29700bfb2970000
:104f60004fb39700dfb3970000000600881f78005a
:104f700018002000881f780089ff07008f87e9004c
:104f80004f04780000000600801feb0084ff07003c
:104f90008f87e90000000600889fbe008a9fbe0040
:104fa0008c1f78000006eb00e00f5000e08f5800e7
:104fb000e00f5900e08f590007003d006044b80041
:104fc0006055b8000000540081805c0002015d0063
:104fd00083815d001c002000e00f5200e08f5a002a
:104fe000e00f5b00e08f5b0007003d006044b8000d
:104ff0006055b8000402540085825c0006035d0021
:1050000087835d000c00a200370007000c00e00061
:10501000060032006022b8006033b8000000520081
:1050200081805a0002015b0083815b004f0678009b
:105030004f05be004f04be0000000600889fbe0062
:105040008a9fbe00841f7800d0fe07004f007800c2
:1050500011003300f0ff2f00838f6c0006003b002f
:10506000040565000a00a7000800370009f0a60043
:105070001000200008003700820f5400838f5c006e
:10508000030039001000200001003e000000200055
:1050900009f0a7000000ea004f05be004f04be0063
:1050a0000000e00000000600881f7800030478007c
:1050b0000300e00007003d0060001000e0801800e1
:1050c00060011900e081190002003b0001f02d0091
:1050d0000300370041fe070008f0a70001f0a00020
:1050e0004f04780000000600889fbe008a9fbe0023
:1050f0008c9fbe000404b8000506b8008904460071
:1051000060854e000606b8000a054600e0854e00a0
:105110000706b8008b054600040eb8008904460057
:105120000a854e00e0854d00050eb8000a054600d0
:105130008b854e00060eb8008b0546000416b8009d
:105140000a0546008b854e000516b8008b05460003
:10515000041eb8008b0546000800be000a01be0010
:105160004f06be004f05be004f04be000000060003
:105170008001780002003700b15978000201e9008f
:105180000200e000fcff3a00000006008001780009
:1051900002003700815978000201e9000200e000b6
:0851a000fcff3a0000000600cc
:020000040000fa
:1051a80030300000302c00000030000030000000db
:1051b800000800000808000008080000003000008f
:1051c8003132000033340000353600003738000033
:1051d80039410000424300004445000046000000f9
:1051e80080400000c0200000a0600000e010000027
:1051f80090500000d0300000b0700000f0080000af
:1052080088480000c8280000a8680000e8180000c6
:1052180098580000d8380000b8780000f80400005a
:1052280084440000c4240000a4640000e4140000c6
:1052380094540000d4340000b4740000f40c00004e
:105248008c4c0000cc2c0000ac6c0000ec1c000066
:105258009c5c0000dc3c0000bc7c0000fc02000000
:1052680082420000c2220000a2620000e212000096
:1052780092520000d2320000b2720000f20a00001e
:105288008a4a0000ca2a0000aa6a0000ea1a000036
:105298009a5a0000da3a0000ba7a0000fa060000ca
:1052a80086460000c6260000a6660000e616000036
:1052b80096560000d6360000b6760000f60e0000be
:1052c8008e4e0000ce2e0000ae6e0000ee1e0000d6
:1052d8009e5e0000de3e0000be7e0000fe01000073
:1052e80081410000c1210000a1610000e11100001e
:1052f80091510000d1310000b1710000f1090000a6
:1053080089490000c9290000a9690000e9190000bd
:1053180099590000d9390000b9790000f905000051
:1053280085450000c5250000a5650000e5150000bd
:1053380095550000d5350000b5750000f50d000045
:105348008d4d0000cd2d0000ad6d0000ed1d00005d
:105358009d5d0000dd3d0000bd7d0000fd030000f7
:1053680083430000c3230000a3630000e31300008d
:1053780093530000d3330000b3730000f30b000015
:105388008b4b0000cb2b0000ab6b0000eb1b00002d
:105398009b5b0000db3b0000bb7b0000fb070000c1
:1053a80087470000c7270000a7670000e71700002d
:1053b80097570000d7370000b7770000f70f0000b5
:1053c8008f4f0000cf2f0000af6f0000ef1f0000cd
:1053d8009f5f0000df3f0000bf7f0000ff0000006c
:1053e8000052000045540000555200004e000000d5
:1053f800525500004e0000004c4900005354000074
:105408000045000058490000540000004e450000c7
:10541800570000004c4500005400000049460000b9
:1054280000540000484500004e000000454c0000b4
:1054380053450000004700004f5400004f00000093
:10544800474f00005355000042000000524500003d
:105458004d00000050520000494e0000540000006a
:10546800494e00005055000054000000464f00000f
:1054780052000000544f0000004e00004558000044
:105488005400000052450000414400000044000060
:1054980041540000410000005354000041520000f4
:1054a80054520000005300005441000052540000c0
:1054b80000530000544f00005052000000530000f9
:1054c800544f000050000000534500004e440000b7
:1054d80000520000454300004549000056450000c1
:1054e800004300004c4b0000004400004154000001
:1054f80000420000495400005245000041440000a9
:1055080000410000444300000041000055580000dd
:10551800504900004e0000005053000055000000a4
:10552800505500004c4c000055500000004400004d
:10553800454c00004159000000410000555800004a
:10554800004600005245000051000000445500008c
:1055580054590000004d000041430000524f000024
:10556800004500004e440000000000000eaa0000a4
:1055780012aa000015aa00001aaa00001faa00001b
:1055880024aa0000f5a900002aaa00002eaa0000fb
:1055980034aa00003aaa00003eaa000041aa00006e
:1055a80046aa00004baa000050aa000057aa000013
:1055b8005daa000063aa000068aa00006daa0000a6
:1055c80075aa000079aa00007daa000085aa00003b
:1055d80089aa000090aa000094aa00009baa0000d3
:1055e800a1aa0000a5aa0000aaaa0000afaa00006c
:1055f800b5aa000000000000002e0000003a0000dc
:1056080020000000005e0000bce20000613f0000d6
:10561800dd830000c29c00007e200000a3fd000086
:105628001f4100009dc30000217f0000fca2000074
:10563800401e00005f010000e3bd00003e60000066
:1056480082dc0000237d00009fc10000421c000096
:10565800fea00000e1bf00005d03000080de000046
:105668003c620000bee00000025c0000df81000038
:10567800633d00007c220000c09e00001d43000026
:10568800a1ff000046180000faa4000027790000d6
:105698009bc5000084da000038660000e5bb000006
:1056a80059070000db85000067390000bae40000f4
:1056b8000658000019470000a5fb000078260000e6
:1056c800c49a0000653b0000d9870000045a000016
:1056d800b8e60000a7f900001b450000c6980000c6
:1056e8007a240000f8a60000441a000099c70000b8
:1056f800257b00003a64000086d800005b050000a6
:10570800e7b900008cd20000306e0000edb3000055
:10571800510f00004e100000f2ac00002f71000085
:1057280093cd0000114f0000adf30000702e000073
:10573800cc920000d38d00006f310000b2ec000065
:105748000e500000aff10000134d0000ce90000095
:10575800722c00006d330000d18f00000c52000045
:10576800b0ee0000326c00008ed00000530d000037
:10577800efb10000f0ae00004c12000091cf000025
:105788002d730000ca94000076280000abf50000d5
:105798001749000008560000b4ea00006937000005
:1057a800d58b000057090000ebb5000036680000f3
:1057b8008ad4000095cb000029770000f4aa0000e5
:1057c80048160000e9b70000550b000088d6000015
:1057d800346a00002b75000097c900004a140000c5
:1057e800f6a80000742a0000c8960000154b0000b7
:1057f800a9f70000b6e800000a540000d7890000a5
:105808006b350000120100000002000002000000d9
:1058180000080000d804000000fb0000020000009f
:10582800010200000301000009020000430000001b
:10583800020100000080000064090000040000006c
:105848000001000002020000010000000524000021
:1058580000100000010400002402000002050000fe
:1058680024060000000100000524000001010000da
:105878000107000005810000030a00000040000045
:105888000904000001000000020a000000000000f6
:1058980000070000050200000240000000000000b0
:1058a800070500008202000040000000000400001c
:1058b80003090000042a00000344000000610000fe
:1058c800006e000000670000006500000072000024
:1058d800006f000000750000007300000020000049
:1058e8000050000000720000006f0000007400000b
:1058f800006f0000007400000079000000700000d4
:105908000065000000730000001e00000342000054
:105918000075000000730000002000000050000027
:1059280000690000007200000061000000740000bf
:105938000065000000200000005600000034000050
:1059480000200000001200000330000000300000ba
:10595800003000000030000000300000003000007f
:10596800003000000031000000000000490900007c
:10597800004f00000900000048090000004c00002a
:1059880009000000000d00000a280000007800004f
:10599800002900003e000000082000000800000068
:1059a8002e20000000420000757300002050000007
:1059b8006972000061740000652000007634000000
:1059c800004300006f6d00006d7500006e690000f7
:1059d8007479000020460000697200006d770000ad
:1059e8006172000065200000763700002e3100004b
:1059f800202d0000206700006f6f00002e67000058
:105a08006c2f0000674300007a5100006e570000b9
:105a180020000000290000003e0000001b5b000081
:105a2800440000001b5b000000440000001b000055
:105a38005b430000001b00005b3200004b0d0000c0
:105a480000430000001b00005b320000440000001f
:105a58002e2000003c0000000000000001000000b3
:105a68000000000002000000000000000400000028
:105a78000000000008000000000000001000000006
:105a880000000000200000000000000040000000ae
:105a980000000000800000000000000080000000fe
:105aa80000000000000100000000000000020000eb
:105ab80000000000000400000000000000080000d2
:105ac800000000000010000000000000002000009e
:105ad80000000000004000000000000000800000fe
:105ae80000000000000000000100000000000000ad
:105af8000200000000000000040000000000000098
:105b08000800000000000000100000000000000075
:105b180014340000040d0000820600004003000059
:105b2800a0010000cf000000670000004400000052
:105b3800220000007f0000000000000000000000bc
:105b48002c010000000000005802000000000000c6
:105b5800b004000000000000600900000000000020
:105b6800c0120000000000008025000000000000b6
:105b78004038000000000000004b0000000000005a
:105b88008070000000000000009600000000000087
:105b9800c0da00000000000000e100000000000082
:105ba80000c200000100000000f400000100000035
:105bb80000e8000003000000314100004c530000e1
:105bc800014200005076000034000000210000006f
:105bd8000010000000230000000f000042400000f9
:105be8004005000041020000000000000000000025
:105bf800181c00001d0c0000161a00000b0f0000f6
:105c08001e1700001b00000014640000020a0000b8
:105c1800010500000000000000200000290000002d
:105c28009d2500000d000000290000000000000074
:105c3800000000000000000000000000000000005c
:020000040000fa
:105c4800109881000000e8000080fb00012023007c
:105c5800e140780080c7b30080cf500010003200c8
:105c68007440500080cf50000900320000c0e900a5
:105c780080cf5000080032000040eb0072c7b3002c
:105c880082cf500008003a0030002000050037009d
:105c9800100020000300370020002000010037001a
:105ca8000000eb000040e80000000600c21680007b
:105cb80080006100d0cb2a0001003200a0cb2a006e
:105cc800029b02000000000000000600d2168000bf
:105cd8008000610030cc2a000100320000cc2a008c
:105ce800029b02000000000000000600800078000f
:105cf80000c3b3000100e000010032000040e800ea
:105d0800889902000000000000000600889fbe007d
:105d1800c02e2d00010020005ebc02000000000023
:105d280040572c00010020005ebc0200000000006b
:105d3800c0a52c000100200004bc020000000000e7
:105d4800b04623009080fb00000320000088b900c3
:105d58004002b000c1c622006100780000000100c6
:105d6800402f2d000100200004bc020000000000ac
:105d780010002000cdff070000102000cbff070017
:105d880000022000c9ff070000012000c7ff07002c
:105d980080002000c5ff070040002000c3ff070067
:105da80020002000c1ff070060cc2a00169c0200da
:105db80000000000404a2d000100200004bc020041
:105dc8000000000021e3a800200020003299020012
:105dd80000000000809a02000000000048512d00d9
:105de800090020000800be0004bc020000000000fa
:105df80090c0b30088990200000000000000eb008a
:105e08003299020000000000809a020000000000a1
:105e18000800be0004bc02000000000090c0b300ef
:105e2800889902000000000050002000329902000a
:105e380000000000809a0200000000000800be0078
:105e480004bc02000000000090c0b3008899020062
:105e5800000000001000200032990200000000003d
:105e6800809a0200000000000800be0004bc020086
:105e78000000000090c0b3008899020000000000f4
:105e880021e3a9001000200090ff07000010200067
:105e98008eff0700000220008cff07000001200091
:105ea8008aff07008000200088ff070040002000cc
:105eb80086ff07002000200084ff070060cc2a002e
:105ec800169c0200000000004f04be0000000600ff
:105ed80020412d000100200004bc02000000000049
:105ee800a17f250010002000729902000000000028
:105ef800969902000000000000c2b30088990200d1
:105f08000000000040462d000100200004bc0200f3
:105f180000000000c17f25001000200072990200d7
:105f2800000000009699020000000000a03c2d002f
:105f38000100200004bc020000000000e17f2500f1
:105f480010002000729902000000000096990200db
:105f58000000000060cc2a00169c0200000000002f
:105f6800001f2d00010020005ebc020000000000a0
:105f780066ff0700cb22ab000500320080082d0029
:105f88000100200004bc02000000000004003700eb
:105f9800a0f82c000100200004bc02000000000052
:105fa800c0c2b300889902000000000000c2b3001c
:105fb8008899020000000000e282ab000500320070
:105fc800c0f72c000100200004bc02000000000003
:105fd80004003700c0ed2c000100200004bc0200c2
:105fe80000000000c0c2b300889902000000000051
:105ff80000c2b3008899020000000000e8a2ab00cc
:1060080004003a00e0442d000100200004bc020016
:1060180000000000e882ab0004003a0040352d0083
:106028000100200004bc02000000000060442300be
:10603800104078007040600005003200e0b82c0085
:10604800010020005ebc02000000000004003700d0
:1060580080c42c00010020005ebc0200000000008b
:1060680060442300104078006840600005003a0052
:1060780000d22c000100200004bc02000000000037
:106088000400370040d32c000100200004bc0200ab
:1060980000000000c0c2b3008899020000000000a0
:1060a80000c2b300889902000000000040d82c000c
:1060b8000100200004bc020000000000804423000e
:1060c800104078005c9a02000000000060cc2a00b2
:1060d800169c020000000000604423001040780075
:1060e800634060000080fb00e20f50000e003200a9
:1060f800e30f500011003200e10f5000050032009c
:10610800c0ec2c00010020005ebc02000000000072
:106118000e003700c0eb2c00010020005ebc02001e
:106128000000000009003700c0f22c000100200028
:106138005ebc02000000000004003700c0f32c0021
:10614800010020005ebc020000000000b0462300f1
:106158009080fb00000320000088b9006002b000b6
:10616800c1c622006100780000000100001f2d0058
:10617800010020005ebc02000000000000000600d4
:10618800889fbe008a1f7800139881000380fb0057
:106198000120230061407800f1ccb3008140400029
:1061a800e8cf50001a003e000080fb000003b10059
:1061b8008300e8008180fb000220230062c1780090
:1061c80004cdb3000442410011002000e94f520001
:1061d80077003e00f80f20000720230006cdb3000b
:1061e8006a02b9000280fb00040040000003b1000d
:1061f8008100e800038140000801610067417900df
:1062080006424100e94f5200f5ff360068003700aa
:1062180001c3b300814f500060003a000300e8005a
:106228000080fb00012023006141780020c6b300f4
:10623800804f51000b003a000380e8000080fb000b
:10624800012023006141780004cdb30004424100dd
:106258000000eb0021002000e14f5200050036004d
:106268005300370020c4b300804f510010003a009b
:10627800f1ff3700f70f20000620230005cdb300fb
:10628800000040000281fb00020040000003b10052
:106298008100e80003814000070161006641790040
:1062a80005424100e14f5200f5ff3600400037003b
:1062b80080c7b300804f51000a00320080c5b30088
:1062c800804f51001e003a00090037004400dd00ed
:1062d8000003b1000281fb00020040008100e800d9
:1062e8000a0037000000eb00210020000200370000
:1062f8000000eb0021002000f80f200006202300fa
:1063080007cdb300f9cbb300fac9b300038240004c
:106318000802620066417a0087424100e9cf5200d4
:10632800eaff360089424100e5cf520027003600d7
:106338008a424100e5cf5200240036001c00370095
:1063480004cdb300044241000000eb00110020001e
:10635800e94f520016003e000280fb000003b10026
:10636800f80f20000720230006cdb3006a02b90009
:106378000280fb00040040000003b1008100e80037
:10638800038140000801610067417900064241002d
:10639800e94f5200f5ff36000500370011c0b30081
:1063a80040302300014878000000eb00040037006b
:1063b80012988100828040008180fb00119889003a
:1063c8004f0578004f04be00000006000254a000ec
:1063d80002737a004400dd007005b1000281fb0001
:1063e80002004000bdff3700881f78001198810027
:1063f8000100e8000080fb0002202300e241780051
:1064080010002000a2c3b30082cf510009003a0057
:106418008180e800f80f20008880600011988900ca
:1064280057ff0700119881008100e9000884600087
:10643800189889004f04780000000600881f78002b
:10644800119881000100e8000080fb000220230071
:10645800e24178000000eb00b2c3b30082cf5100e4
:1064680009003a008180e800f80f20008880600069
:106478001198890042ff0700119881008100e90006
:1064880008846000189889004f047800000006000e
:1064980010988100012023006141780001c2b300f7
:1064a800814f510009003a00f40f20000320230017
:1064b800014178000000e80004006000e340780033
:1064c80082cf5000fbff32001098890000000600c0
:1064d800f6874700889fbe008a9fbe008c9fbe003b
:1064e8008e1f7800e0b79f00d1b79f00a2b79f002a
:1064f80083bf9f000acdb300dcc2b300ecef9f005e
:106508008ec7b300c8d52c0009002000b8b79f007b
:10651800c9b79f0070cc2a00029b0200000000004f
:10652800efb097000100e00004003d00b0cc2a0065
:10653800029b020000000000030037004fe89700ac
:106548005c9a020000000000d0cc2a00029b0200e6
:10655800000000008006eb008005eb00f09c0200c4
:106568000000000000447800ed4f54004300320062
:1065780005003e00e84f540008003200ea4f54007e
:1065880027003a003d0037008c4f540015003200b8
:106598008e4f540022003a001d0037000b00e00027
:1065a800050032008b05e90000cd2a00029b02009d
:1065b80000000000e9ff37000d00e0000500320090
:1065c80000cd2a00029b0200000000008006eb00bc
:1065d800e2ff370070c0b300889902000000000095
:1065e800deff37000b00e00005003a006fe8970077
:1065f80088990200000000001d002000d7ff370026
:1066080070c0b3008899020000000000d3ff370073
:106618000fb897000000e00014003200380037007f
:106628000a404400e94f500010003e00e38f550037
:106638000500340070c0b300889902000000000013
:106648004b002000c5ff37000840780088990200f9
:106658000000000008407800e1fd2f008f80400016
:1066680080f07d008b05e800bcff370070c0b300e8
:106678008899020000000000b8ff370060cc2a00ab
:10668800169c0200000000000b00e0002000320011
:106698000b00e9000001eb0009003300e0fd2f00ca
:1066a8000f0040008b0540006a11b900b080fb0064
:1066b8000103b100028140008b0f5000faff3a003d
:1066c800dfb09700828f500008003c002fb0970081
:1066d800820f5000050035000d00e0000b0032006d
:1066e8000200ea00e0b79f00090037003fb09700ba
:1066f800cfb097005ebc02000000000085ff3700a5
:106708008080eb00e1b79f0001003700e2b79f00ef
:106718006fb097004f0778004f06be004f05be00c8
:106728004f04be006f01b100000006001e00fa0011
:10673800889fbe008a9fbe008c9fbe001098810073
:106748000004e9000884fb001d002000880f5000a9
:106758002b00320009202300fb0f200069407c0039
:106768000004e00021003a000806e8000b06660075
:1067780069407e000004e0001c0032000d407800f3
:106788005c9a02000000000040cd2a00029b020033
:106798000000000069407e000004e00008003200ac
:1067a8000885e80088990200000000000b006500d9
:1067b800694078000a05e8000004e000f9ff3a00a3
:1067c8000d8046000c01780061fd2f008f8040008d
:1067d800823078008d06e800ef8f560008003200fe
:1067e80060cc2a00169c0200000000000804e900a2
:1067f8000b04640010988100800f5400d7ff3a0002
:1068080060cc2a00169c020000000000e03b2d002e
:10681800010020005ebc0200000000001300200000
:106828000d017800830078000000eb0028ff0700c6
:106838008000e800e18f50000b00360000004000a7
:1068480061fd2f008f804000e10278000580fb0089
:1068580001202300e14078000000eb000104e00083
:1068680006003a001200370060cc2a00169c02008d
:1068780000000000100020001c003700069881006e
:106888000000eb00f30f2000022023000602400066
:106898000302620001717a000000e80085004000f0
:1068a80083806000e2c078000104e000f7ff3a004e
:1068b800029881000201e900f10f20000101610046
:1068c800129889000281e800000041000100600080
:1068d800009889000000e900810060000041eb0099
:1068e8000020230002f078000000eb004f06be00f5
:1068f8004f05be004f04be000080fa0000000600ed
:10690800889fbe008a9fbe00109881000000e800a2
:106918000080fb0010988900ddfe070018fe0700c4
:106928000000e00045003a000004eb0009032000e5
:10693800cac622000840e8005c9a02000000000075
:1069480040cd2a00029b02000000000009c0b900e7
:106958008002b0000a004000169c020000000000ff
:106968000804e800eb0f5400f2ff3a00c0f02c00d6
:10697800010020005ebc020000000000403023003f
:106988000048eb0013002000b200200083007800cc
:1069980003007800cefe07000004e9000000e800cc
:1069a800e10f500005003e00601e2d000100200090
:1069b8005ebc0200000000003f003700b94623001b
:1069c8001980fb000a0320000a80b9002002b000e9
:1069d800cbc622006b00780000000100d4980200aa
:1069e80000000000884c78000880fb000a80b9008d
:1069f8007e0540006b007d000000010040022d0074
:106a0800010020005ebc0200000000000800e00059
:106a180005003200cb02a800c06f2c000100200046
:106a28005ebc020000000000c0452d0001002000ef
:106a38005ebc0200000000001f0037000004e900ef
:106a4800ea0f540018003c00b94623001980fb00e7
:106a58000a0320000a80b9002002b000cbc6220039
:106a68006b00780000000100d498020000000000cc
:106a7800884c78000880fb000a80b9007e05400039
:106a88006b007d00000001000800e00001003200fa
:106a9800cb02a800c0452d00010020005ebc02000a
:106aa8000000000004003700c0f12c0001002000a5
:106ab8005ebc020000000000009881000000e900b0
:106ac8000080fb00109889004f05be004f04be00ef
:106ad80000000600881f7800109881000000e80078
:106ae8000080fb001098890069fe0700a4fd0700dc
:106af8000040e900e94f500003003e0091462300a2
:106b0800804878000d003700403023000048eb0033
:106b1800401a2c00010020005ebc020000000000aa
:106b28008001eb00a200200011002000900020004e
:106b380067fe0700914623008048e9000044eb0007
:106b48009046230091c0b30090cf100011003a0086
:106b58004ffe07008afd0700004478000804e000a3
:106b68000c003a00403023000048eb00c0f52c0030
:106b7800010020005ebc0200000000008001eb0064
:106b8800f2ff27008000eb002002200050fe0700e3
:106b98000044780060fa2c00010020005ebc02006e
:106ba80000000000800b2d00010020005ebc0200e8
:106bb80000000000629d02000000000090462300d3
:106bc80091c0b30090cf100003003a000880fb008a
:106bd8006e9d020000000000609d020000000000a1
:106be80008c2b300f09c020000000000884f50006b
:106bf800fcff3a004f04780000000600109881005e
:106c08000000e8000080fb001098890020fe0700c3
:106c18005bfd07008000e900e38f500003003e00a1
:106c2800a14623008048e9000d00370040302300ca
:106c38000048eb0060ba2c00010020005ebc020096
:106c4800000000008001eb0042002000110020003d
:106c5800100020001efe0700a14623008048e9001e
:106c680080f92c00010020005ebc0200000000003a
:106c780000000600fc874700889fbe008a9fbe0070
:106c88008c9fbe008e1f78000004be00a4b79f0032
:106c9800b5b79f0083bf9f00dec2b3006110b90083
:106ca800c0b79f00d1b79f00cad52c000b002000a9
:106cb800e8b79f00f9b79f0070cc2a00029b02003a
:106cc800000000006fb09700ffb09700e00f500081
:106cd800e08f580004003d00b0cc2a00029b02005f
:106ce80000000000040037006fb09700ffb0970065
:106cf800769a020000000000d0cc2a00029b020015
:106d0800000000006066b800f09c0200000000006f
:106d180000447800ed4f54004500320005003e0065
:106d2800e84f540009003200ea4f540028003a00a6
:106d38003f0037008e4f54001600320080c7b30062
:106d4800804f540022003a001d0037000d00e0007b
:106d5800050032008d06e90000cd2a00029b0200e2
:106d680000000000e8ff37000c00e00005003200da
:106d780000cd2a00029b0200000000000006eb0084
:106d8800e1ff370070c0b3008899020000000000de
:106d9800ddff37000d00e00005003a000e407800e6
:106da80088990200000000001c002000d6ff370070
:106db80070c0b3008899020000000000d2ff3700bd
:106dc8008fb897000100e00015003200400037003e
:106dd80002cdb30002404400e94f500010003e00cd
:106de800e98f56000500340070c0b300889902008e
:106df80000000000ad002000c3ff37000840780005
:106e080088990200000000000842780083fd2f00e6
:106e18008f81410084f17e008d06e800baff3700bb
:106e280070c0b3008899020000000000b6ff370068
:106e380060cc2a00169c0200000000000d00e00053
:106e4800280032000d01e9006000b8000d00330091
:106e580082fd2f000f0141008d0641006a0ab9002a
:106e68006a00b80081004200b281fb000303b10050
:106e78004f9ade000080410081004a008d0f5100ca
:106e8800f6ff3a004fb19700dfb19700800f51002d
:106e9800818f59000a003c002fb19700bfb19700bd
:106ea800800f5100818f5900050035000c00e0006b
:106eb8000a00320060041000e08418000b0037005c
:106ec8000a00be005ebc0200000000007aff370026
:106ed8000084eb008084eb00040037000004be004f
:106ee800020037006fb49700ffb497000800be0097
:106ef8004f0778004f06be004f05be004f04be0086
:106f0800cf01b10000000600889fbe008a9fbe0026
:106f180070cd2a00169c02000000000050ce2a0006
:106f2800029b020000000000b0c5b300889902006f
:106f380000000000190020000004eb000a032000f4
:106f4800cbc62200020037000804e8008904e800e4
:106f58000800e0004100320000c2b3008899020036
:106f6800000000000ac0b9008002b0000b00400019
:106f7800029b020000000000ea8f5400f2ff360076
:106f8800d0c5b300889902000000000060cc2a0038
:106f9800169c020000000000403c2d00010020006b
:106fa80004bc02000000000020a3810096990200a2
:106fb80000000000403f2d000100200004bc02003a
:106fc8000000000068462300180078009699020027
:106fd8000000000080112d000100200004bc020008
:106fe8000000000018007800e10f50000300320094
:106ff800e30f50000b003a0005003700c0502d0089
:107008000100200004bc0200000000000900370055
:10701800e0502d000100200004bc02000000000028
:1070280004003700804c2d000100200004bc020041
:1070380000000000e0d02a00169c020000000000ba
:1070480020c32c00010020005ebc020000000000ec
:107058004f05be004f04be00000006000ac0b9007c
:107068008002b0000b004000029b020000000000fc
:10707800b5ff3700b04623001004e00008003a00ce
:10708800c0d02c00010020005ebc020000000000ff
:1070980011c0b30040302300014878006d0037006c
:1070a80060442300104078007040600008003a00f7
:1070b80060bd2c00010020005ebc02000000000042
:1070c80011c0b30040302300014878006100370048
:1070d800e8a2a800e882a80000d02700010020004c
:1070e800f2c902000000000021e3a80050002000bf
:1070f800329902000000000001102000810f5000aa
:1071080004003600609d2c00010020005ebc0200d7
:107118000000000021e3a900109881000000e800a9
:107128000080fb0010988900d9fc070014fc0700b8
:10713800413023001104e0000b0032000100780008
:107148000048eb00e04f2c00010020005ebc02006c
:10715800000000008001eb00320020001100200038
:1071680010002000dafc0700e20f50000f00320088
:10717800e30f50001d003200e10f50002b003a00d1
:10718800e8a2a800e882a80000e32c000100200083
:1071980004bc02000000000060402d000100200037
:1071a8005ebc0200000000002a003700e8a2a80028
:1071b800ea82a900e882a90080472d00010020008a
:1071c80004bc02000000000000e32c0001002000c5
:1071d80004bc02000000000000402d000100200057
:1071e8005ebc0200000000001a003700e882a80018
:1071f800eaa2a900e8a2a90020502d000100200061
:1072080004bc02000000000000e32c000100200084
:1072180004bc02000000000000402d000100200016
:107228005ebc0200000000000a003700e8a2a800c7
:10723800e882a80000e32c000100200004bc020042
:107248000000000060402d00010020005ebc02002c
:1072580000000000000006006f02b000889fbe001a
:107268008a9fbe008c9fbe008e1f78000000eb0036
:107278001098890000988900b1462300804878005a
:10728800413023008048eb00513023009f00090063
:107298008058eb00309d89000041eb00e2df9f0041
:1072a800d0b79f00e0b79f00c0b79f0090b79f007e
:1072b800a0b79f0080b79f00b0b79f00aa392d00e4
:1072c8000b002000ccef2c000d002000402c2d00de
:1072d80001002000d0af9f00e1af9f00c0ee2c005e
:1072e80001002000b0af9f00c1af9f009caf9f007e
:1072f800adaf9f00b04623001081fb0000032000c3
:107308000091b90040c92200000141000200780044
:10731800029b020000000000c04623001000780015
:1073280064006000030032000a00be0004bc0200d2
:107338000000000000d12a00029b020000000000ab
:107348005e30230009202300309d81000000e0000a
:10735800410032000000e900309d8900c500dd00d1
:10736800eec078000104e000130032000004eb00d6
:1073780002988100817479004500dd000800400012
:107388006e40780088990200000000000804e800b8
:10739800009881000000e8000080fb000098890048
:1073a800309d8100c500dd0088804000eec0780077
:1073b8000104e000eeff3a000000eb00309d890078
:1073c80025003700614423009140780064c06000c4
:1073d8001f003200b24623001280fb000d80b90066
:1073e8007a0040006c007800000001000004e00012
:1073f80017003200b14623001180fb000d80b90050
:107408008002b0000c004000029b02000000000057
:1074180000d12a00029b0200000000001898810099
:1074280000988100800f540009003200fa0f2000f4
:1074380069407c0088990200000000000a0464008a
:107448000804e80000988100800f5400f8ff3a0013
:1074580090168000040037000d032000ccc62200df
:10746800fab79f008bbf9f00dc9c02000000000061
:107478000004e000d3ff32007fb597008fbd97006e
:10748800689d0200000000000004e00003003200d4
:107498006c9d020000000000abff3700f09c02006a
:1074a80000000000004478000880fb008000eb002a
:1074b800f2072000820f5000e08f580096023e002d
:1074c800006001008a023700410237000b013700d3
:1074d80091023700bc003700530237001e01370005
:1074e8008d023700770037008b02370064023700bf
:1074f800890237008802370061023700950137009a
:1075080085023700230137008302370082023700e3
:1075180081023700800237007f0237007e02370081
:107528007d0237007c0237007b0237007a02370081
:10753800cc00370078023700770237007602370030
:107548007502370074023700730237007202370081
:1075580071023700700237006f0237006e02370081
:107568006d0237006c0237006b0237006a02370081
:107578006902370068023700670237006602370081
:107588006502370064023700630237006202370081
:1075980061023700600237005f0237005e02370081
:1075a8005d0237005c0237005b0237005a02370081
:1075b8005902370058023700570237005602370081
:1075c8005502370054023700530237005202370081
:1075d80051023700500237004f0237004e02370081
:1075e8004d0237004c0237004b0237004a02370081
:1075f8004902370048023700470237004602370081
:107608004502370044023700430237004202370080
:1076180041023700400237003f0237003e02370080
:107628003d0237003c0237003b0237003a02370080
:107638003902370038023700370237003602370080
:107648003502370034023700330237003202370080
:1076580031023700300237002f0237002e02370080
:107668002d0237002c0237002b0237002a02370080
:107678002902370028023700270237002602370080
:107688002502370024023700230237002202370080
:1076980021023700200237001f0237001e02370080
:1076a8001d0237001c0237001b0237001a02370080
:1076b8001902370018023700170237001602370080
:1076c8004100370010988100efb09700808f50007c
:1076d8003900320000988100808f50000b003a007a
:1076e8000100e9000080fb00e0b79f0000988900d6
:1076f8000040eb006fb197008074790000cd2a003c
:10770800029b0200000000000fff3700efb0970057
:107718000100e9000080fb00e0b79f0020d12a00ab
:10772800029b020000000000009881000006eb00a8
:107738006fb19700800f510012003200820078006c
:10774800fd0f20000104e80069407c0080f4780007
:107758000004e000030032008899020000000000e5
:107768000300370000c2b30088990200000000003f
:107778000c06e8008d00640000988100808f50009e
:10778800f0ff3a000000e9000080fb000098890043
:1077980060d12a00029b0200000000000c40780023
:1077a8005c9a02000000000090d12a00029b0200af
:1077b80000000000e4fe370070c0b30088990200a2
:1077c80000000000e0fe370000988100efb097004d
:1077d800808f50001f0032000006eb00fd0f2000d4
:1077e8000104e80069407c0080f478000004e000af
:1077f80003003200889902000000000003003700ef
:1078080000c2b30088990200000000000c06e800de
:107818008d00640000988100808f5000f0ff3a00ce
:107828000000e9000080fb000098890060d12a0070
:10783800029b0200000000000c4078005c9a0200e5
:107848000000000090d12a00029b02000000000006
:10785800bdfe370070c0b300889902000000000028
:10786800b9fe3700f09c020000000000b1c5b3006b
:10787800814f5000b4fe3a00f09c02000000000066
:1078880011c4b300814f50004200320007003e008f
:10789800f0c05000814f50000c003200e3c040009f
:1078a800814f5000a8fe3a000e00370031c4b300e3
:1078b800814f500028003200a60039008140e800be
:1078c800814f5000a0fe3a000c003700f09c0200e7
:1078d80000000000e1c7b300814f50009afe3a0053
:1078e8003b013700f09c020000000000e1c7b30034
:1078f800814f500094fe3a004b0137004fb197007a
:10790800e40f510005003400e0bb02000000000055
:107918000000eb00c0b79f008bfe37001098810075
:10792800efb09700808f5000070032000100e90097
:107938000080fb00e0b79f0020d12a00029b0200d4
:107948000000000080fe370070c0b3008899020074
:10795800000000007cfe3700009881006fb197009e
:10796800800f5100070032000200e8000080fb0091
:10797800e0b79f00b0d12a00029b0200000000007f
:1079880071fe370070c0b300889902000000000043
:107998006dfe3700159881000504e9000884fb0096
:1079a8000806780002988100820f540065003200b2
:1079b8000002eb00f00f2000dfb19700e9407c00e7
:1079c8000104e0005a003a008800e9008080600065
:1079d80069c378000604e000550032000402e8009c
:1079e800830f520052003600010278005fb0970002
:1079f8000000e800d0b79f00828f52000a003200d2
:107a08008041eb00f00f2000837479000201e90047
:107a180000016100828f5200fbff3a000298890042
:107a28000040eb008074790002988100820f5200b8
:107a38001000320069407a00f30f20000004e000d3
:107a480008003a000300370069c078000004e0002d
:107a580004003a008100e8008180fb0091b79f0094
:107a6800040037008100e90083806000828f5000a5
:107a7800f5ff3a00f0d12a00029b02000000000046
:107a8800b14623001181fb00000320000091b900da
:107a980040c922000001410002007800029b020058
:107aa80000000000c0462300100078006400600059
:107ab800030032000a00be0004bc020000000000ff
:107ac80000d12a00029b0200000000001fb19700ad
:107ad800880f51000e0032008206780069c07e00cf
:107ae8008899020000000000009881006df07c0079
:107af8000000e800f20f20000200600000988900f2
:107b08008d06e80082866600888f5600f3ff3a00eb
:107b180000988100e0b79f000040eb00efb09700ad
:107b280080f478008c8f500007fe3a00050037007b
:107b38000804e9000004640008067800820f540075
:107b48009eff3a0070c0b300889902000000000050
:107b5800fdfd3700159881000504e9000884fb0045
:107b68000806780002988100820f540065003200f0
:107b78008001eb00f10f20005fb097000002e900e0
:107b880069407c000004e00059003a000800e90060
:107b980001006000694378000604e00054003200e8
:107ba8008301e800830f520051003a000002780078
:107bb800dfb097008100e900d1b79f00828f5200a3
:107bc8000a0032008041eb00f10f20008374790035
:107bd8000201e90001016100828f5200fbff3a00b7
:107be800029889008040eb00817479000298810036
:107bf800820f520010003200e9407a00f30f200093
:107c08000104e00008003a0003003700e94078006a
:107c18000104e00004003a000000e8000080fb00d6
:107c280090b79f00040037000000e90003006000df
:107c3800800f5100f5ff3a00f0d12a00029b0200a4
:107c480000000000b04623001081fb000003200064
:107c58000091b90040c922000001410002007800eb
:107c6800029b020000000000c046230010007800bc
:107c780064006000030032000a00be0004bc020079
:107c88000000000000d12a00029b02000000000052
:107c98009fb09700888f50000e0032008106780050
:107ca80069c07e00889902000000000000988100e9
:107cb8006df07c000000e800f10f2000010060007a
:107cc800009889008d06e80081866600888f560036
:107cd800f3ff3a0002988100e2b79f000040eb00f2
:107ce80080747900820f560097fd3a00050037002e
:107cf8000804e9000104640008067800820f5400b3
:107d08009fff3a005fb09700e10f50002c003a0047
:107d1800f0d12a00029b020000000000b1462300b7
:107d28001181fb00000320000091b90040c9220026
:107d38000001410002007800029b020000000000e0
:107d4800c046230010007800640060000300320081
:107d58000a00be0004bc02000000000000d12a0096
:107d6800029b02000000000002988100e2b79f0019
:107d780010988100800f51000b0032000041eb0089
:107d8800f10f2000efb1970082f479008301e90038
:107d980081816100830f5000fbff3a00e3b79f0029
:107da80003007800009889000040eb00efb09700ce
:107db80080f478000001eb00d2b79f0062fd370025
:107dc80070c0b30088990200000000005efd370013
:107dd800189881006fb09700880f50000e0032008d
:107de80060d12a00029b020000000000efb097005b
:107df800088050000080fb005c9a02000000000030
:107e080090d12a00029b0200000000001298810015
:107e1800e2b79f004cfd370070c0b300889902009c
:107e28000000000048fd3700089881006fb09700f7
:107e3800880f50000e00320060d12a00029b020019
:107e480000000000efb09700010054000080fb0024
:107e58005c9a02000000000050d22a00029b020037
:107e68000000000002988100e2b79f0036fd37004d
:107e780070c0b300889902000000000032fd37008e
:107e8800009881000044eb000120230088707800ee
:107e98000000e8000080fb00e0b79f000098890020
:107ea80060cc2a00169c02000000000000988100a7
:107eb80080b79f0011988100a1b79f004030230030
:107ec80008487800c046230010007800640060006d
:107ed80060003a000001eb00d2b79f00084078002c
:107ee800e0df9f008000eb00b1b79f00640037001f
:107ef8004fb197000201e800c2b79f00f40f51008c
:107f080011fd3a0080600200000000000000eb0054
:107f1800c0b79f00ca0137000c9881008c00e800a8
:107f28008180fb0010988100808f5000450032004e
:107f3800ff4f540043003600e0c7b300804f5400a1
:107f480040003e00efb097008c8f50000d003a00c3
:107f5800084078008899020000000000009881001d
:107f6800887478000000e8000080fb00e0b79f00fc
:107f7800009889000040eb006fb197008074790089
:107f8800f1fc370060d12a00029b020000000000cb
:107f9800efb0970001005600fd0f20000d006000b3
:107fa8005c9a02000000000050d22a00029b0200e6
:107fb800000000000c9881006fb197000200e900f2
:107fc8008d0660008d0f5600100032000c804400b2
:107fd800e9407e001140980069407e000004e000fe
:107fe80005003200889902000000000070d22a00c3
:107ff800029b0200000000000c06e900f20f2000be
:10800800020666008d0f5600f0ff3a00084078001f
:1080180088990200000000006fb09700887478000b
:108028008000e800f00f200080806000e1b79f002a
:10803800019881008100e8000080600000988900b4
:10804800c1fc370070c0b30088990200000000002e
:10805800bdfc37002a54020000000000c0452d0076
:10806800010020005ebc0200000000008000eb0060
:10807800d1b79f000041eb00e2df9f00ad0437005d
:108088001098810001202300614178000281fb00e3
:108098008001eb00e1072000810f5100e08f5900bb
:1080a80075043e000260010077043700720437004f
:1080b80071043700700437006f0437006e0437000e
:1080c8006d0437006c0437006b0437006a0437000e
:1080d8006d04370068043700670437006a04370006
:1080e800650437006404370063043700620437000e
:1080f80061043700600437005f0437005e0437000e
:108108005d0437005c0437005b0437005a0437000d
:10811800590437005804370057043700560437000d
:108128005504370054043700570437003604370025
:10813800c80237003e013700430137000502370007
:10814800e80137004c0437009e0237004a04370024
:1081580049043700480437004b043700e903370067
:1081680002043700cd0337001a033700190337001c
:1081780018033700170337001603370015033700b5
:1081880014033700130337001203370011033700b5
:1081980039043700380437001d023700dc00370087
:1081a80035043700490037004e01370044013700d5
:1081b800310437006c003700c70137002e04370040
:1081c8002d0437002c0437002b0437002a0437000d
:1081d80029043700780037007f003700260437006d
:1081e8002504370024043700a10037002204370093
:1081f80021043700f60137001f0437001e0437003a
:108208001d0437004a0137001b0437001a043700e1
:1082180019043700cc023700ad033700db02370002
:10822800e0033700c4033700130437001b0137008d
:10823800310037004400370099013700b200370099
:1082480033003700350037001600370022003700aa
:10825800090437004e003700690037002400370052
:1082680005043700260037006f0037000204370086
:108278003e033700d3013700ff033700fe03370002
:108288002100370068013700fb033700fa03370085
:10829800f9033700b4023700b8003700c4023700ca
:1082a800d600370021f907000001eb00b2b79f00a4
:1082b8000000e000f6033a0010988100a0b79f0084
:1082c8000198810081b79f00f103370068bc020064
:1082d80000000000ee0337000bfb0700b046230048
:1082e8001004e000ea033200f9f60700e80337005b
:1082f80083f90700e6033700f6f90700e4033700bf
:108308003efa0700e203370080f60700e003370073
:108318003087020000000000dd033700b04623006c
:108328001004e00005003a00c0d02c000100200035
:108338005ebc020000000000d50337001c86020066
:1083480000000000d203370060442300c1cfb3000f
:1083580010c86000c0eb2c00010020005ebc0200c9
:1083680000000000ca03370060442300c1cfb300f7
:1083780090c060000104a00001487800c0ec2c0007
:10838800010020005ebc020000000000c0033700ae
:1083980060442300c1cfb30090c060000114a00066
:1083a80001487800c0f22c00010020005ebc0200e9
:1083b80000000000b6033700604423001041780035
:1083c80063487100c0f32c00010020005ebc02006d
:1083d80000000000ae033700604423001034a00002
:1083e80040d32c000100200004bc02000000000063
:1083f80060cc2a00169c020000000000a40337008d
:10840800604423001034a10000d22c000100200099
:1084180004bc02000000000060cc2a00169c020088
:10842800000000009a033700b04623001004e00063
:1084380005003a00c0d02c00010020005ebc0200fc
:108448000000000092033700e282a900e082a90040
:10845800c0ed2c000100200004bc02000000000058
:1084680060cc2a00169c0200000000008803370038
:10847800b04623001004e00005003a00c0d02c00ec
:10848800010020005ebc02000000000080033700ed
:1084980060442300104078007040600004003a00f7
:1084a80060bd2c00010020005ebc0200000000003e
:1084b800e082a800e282a900c0f72c000100200099
:1084c80004bc02000000000060cc2a00169c0200d8
:1084d8000000000021e3a8005000200032990200ab
:1084e80000000000f1042000810f500004003e004d
:1084f800e0be2c00010020005ebc0200000000006d
:1085080021e3a90062033700dafa070060033700a5
:108518000000e8000080fb0010988900dcf70700e5
:1085280017f70700000778000e407800c49902008a
:1085380000000000084c2d00090020000800be00c3
:1085480004bc0200000000000e4078005c9a0200a3
:10855800000000000800be0004bc0200000000008b
:108568000e407800ce9a02000000000060cc2a007d
:10857800169c020000000000450337000000e800d8
:108588000080fb0010988900c1f70700fcf607007f
:108598000080fb0081442300914078005a99020032
:1085a80000000000000778000e407800c49902001f
:1085b80000000000084c2d00090020000800be0043
:1085c80004bc0200000000000e4078005c9a020023
:1085d800000000000800be0004bc0200000000000b
:1085e8000e407800ce9a02000000000060cc2a00fd
:1085f800169c02000000000025033700b046230047
:108608001004e00005003a0011c0b30001407800f2
:10861800b2a90200000000001d033700c0e02c00d2
:10862800010020005ebc02000000000018033700b3
:10863800004f2d00010020005ebc02000000000079
:1086480031fa070012033700f4bc020000000000f2
:108658000004e0000e03320011c0b300a07f240024
:1086680001487800c02b2d00010020005ebc0200ec
:108678000000000000a0260081012000f2c90200cd
:1086880000000000d498020000000000629d020073
:10869800000000000000fe00fd02370052f707004e
:1086a8000004780003003700108b0200000000006f
:1086b8000804e9000800e000fbff3a00f402370074
:1086c80049f707000004780003003700d28a020047
:1086d800000000000804e9000800e000fbff3a0081
:1086e800eb02370040f707000004780069cc2a0045
:1086f8000c0037003fa89700cfa8970004bc0200e1
:10870800000000004e8b0200000000000080fb000b
:1087180076f5070009007800169c020000000000aa
:108728000804e9000800e000f2ff3a00d802370028
:10873800b04623001004e00005003a00c0d02c0029
:10874800010020005ebc020000000000d0023700db
:10875800c922a900cb22a80021e3a80000d0270045
:1087680001002000f2c90200000000000000eb0038
:108778003299020000000000011b2000810f500008
:108788001a00360020002000329902000000000084
:10879800712b2000810f50001400360080082d0036
:1087a8000100200004bc02000000000060cc2a0088
:1087b800169c020000000000b04623009080fb00d9
:1087c800000320000088b9000002b000c1c62200e2
:1087d800610078000000010040122d000100200017
:1087e8005ebc0200000000000d003700c922a9008d
:1087f800cb22a90020ce2c00010020005ebc020084
:1088080000000000a0f82c000100200004bc0200b9
:108818000000000060cc2a00169c02000000000046
:1088280021e3a9009a023700b046230010407800df
:108838000004e00005003a00c0d02c000100200030
:108848005ebc020000000000910237000080fb00bf
:10885800010320000180b9002002b000c1c6220037
:10886800610078000000010040022d000100200096
:108878005ebc020000000000c922a900cb22a900aa
:10888800a0f82c000100200004bc02000000000039
:1088980060cc2a00169c0200000000007c02370011
:1088a80000102d000100200004bc020000000000a0
:1088b800c29a02000000000040512d000100200073
:1088c80004bc02000000000060cc2a00169c0200d4
:1088d800000000006e023700f69c02000000000055
:1088e8006b023700c0f6070000047800003a2d003c
:1088f8000100200004bc020000000000080078000d
:108908006a9a02000000000000502d0001002000bb
:108918005ebc0200000000006140b9006109b900b6
:1089280004402200450f20006033b800cc27020025
:108938000000000004242400f50020006033b80083
:10894800b627020000000000f2c902000000000083
:108958004f023700a4f6070000047800003a2d0003
:108968000100200004bc020000000000080078009c
:108978006a9a02000000000060502d0001002000eb
:108988005ebc0200000000006140b9006109b90046
:1089980004402200450f20006033b800cc270200b5
:1089a80000000000843e2000050020006033b8006d
:1089b800b627020000000000f2c902000000000013
:1089c80033023700c04623001020a00030023700d1
:1089d800b04623001004e00005003a00c0d02c0087
:1089e800010020005ebc02000000000028023700e1
:1089f8009e8b0200000000002502370086cf510040
:108a080001003a00074178008100e80006003700bd
:108a180012c0b30011002000f40f2000052023002d
:108a2800e6c3b3008043eb0080814000848161008d
:108a3800e5c179000304e000f0ff3a004330230069
:108a48008249780023022000838f500004003400fc
:108a580011c0b30040302300014878000c023700f1
:108a68000204e0000a023a000000e800f90f2000c2
:108a78000900600010988900c1f50700000478001b
:108a880010988100890460000120230061c17c00e6
:108a9800d1c3b300814f510022003a008800e90099
:108aa800e48f50001b003e000000e8000080fb003f
:108ab800109889004544dd00402e23000000440042
:108ac800000178008000eb000042eb000302200068
:108ad800046978008100e800838f5000fcff3a00a9
:108ae8001198810003202300e4c3b300f50f200090
:108af80003003700026878008100e8008580600084
:108b080063c17800844f5100faff3a001198890038
:108b1800df01370011c0b30040302300014878005e
:108b2800db0137000800e0001a003a005c3023003f
:108b38001e002000c8d22a0009d12a00fab79f00d7
:108b48008bbf9f000c0578000e4078005c9a0200ed
:108b58000000000008007800029b020000000000ee
:108b68000a007800029b020000000000090078005b
:108b7800169c0200000000000e07e8000a02b00080
:108b8800e60f5700f0ff3a007fb597008fbd9700ba
:108b9800bf0137000800e900e40f500005003e005f
:108ba80060cc2a00169c020000000000389d890055
:108bb800b701370011c0b3004030230001487800e6
:108bc800b30137000000e800f80f2000080060003b
:108bd800109889006af50700800478002cf60700d1
:108be800109881000804600000202300e0407c0009
:108bf80090c2b30080cf50000d003a00b046230069
:108c08009080fb00000320000088b9007c00400031
:108c1800c1c62200e10078000900780001000100c7
:108c280060cc2a00169c0200000000009801370062
:108c380011c0b30040302300014878009401370088
:108c480086cf510001003a00874078000201e80011
:108c58000600370011c0b30012002000f40f2000f6
:108c68000520230026c2b3008043eb0080014100a9
:108c780084816100e5c179000304e000f0ff3a0057
:108c880040302300014878000104e00080013a00e8
:108c9800603a2d000100200004bc02000000000022
:108ca80020c2b300889902000000000008202300b9
:108cb800694423000987e800bd462300ccc622008a
:108cc80012003700119889008899020000000000fe
:108cd80010988100684078000080fb0019417800f6
:108ce800e8406100030032009e4078005a99020073
:108cf800000000001d81fb00010320000191b90064
:108d080068014100ec007900010001001198810020
:108d18008100e8008180fb0068c0780022c2b300af
:108d2800824f5000e7ff3a0011988900024078000e
:108d3800889902000000000060cc2a00169c0200fe
:108d48000000000052013700b04623009080fb006d
:108d5800000320000088b900c2c622006200780023
:108d6800000001004a013700b04623009080fb0054
:108d7800000320000088b9000080e800c1c6220076
:108d8800610078000000010041013700b04623006f
:108d98009080fb00000320000088b90064004000b8
:108da800c1c62200610078000000010038013700c8
:108db800b04623009080fb00000320000088b90023
:108dc80066004000c1c62200610078000000010072
:108dd8002f013700603a2d000100200004bc02007a
:108de80000000000e6f40700f0b79f00109881002b
:108df8000000e9000080fb00109889007af5070060
:108e0800000478008df507000000e000090032003a
:108e18008144230080487800e80f500003003400a4
:108e28000180e9001054a0000200370060442300cc
:108e38001054a100880678006c4423000c87e800d1
:108e4800c83a2d0009002000faa79f008baf9f00a9
:108e5800ffb597003d0037000b007800409c0200ea
:108e68000000000001c2b3001cc0600004003a000a
:108e780082c0b3009e4f110004003a000900370079
:108e880000c1b3009e4f100006003200b0c3b3000b
:108e980088990200000000001e4078005c9a0200d9
:108ea800000000009c40780068c0600005003200a7
:108eb8009e4078000b0078005a99020000000000dc
:108ec80080057800b24623009280fb000003200052
:108ed8000088b90068004000c2c62200e20078009d
:108ee8000b007800010001000005780000c2b30003
:108ef800889902000000000001c4b3001cc0600093
:108f0800110032000800be0004bc0200000000008e
:108f18001c41780068406100050032009e407800de
:108f28000a0078005a990200000000000005780045
:108f38000a007800409c02000000000000c2b30054
:108f480088990200000000008d06e9000d00e0008d
:108f5800c1ff3a007fa597008fad970060cc2a002b
:108f6800169c020000000000c9003700c03a2d001e
:108f78000100200004bc02000000000030f30700dc
:108f88000047780018f50700800478002bf50700e3
:108f98000000e00009003200814423008048780086
:108fa800e80f5000030034000180e9001054a000cd
:108fb80002003700604423001054a1000e04e000b2
:108fc80004003200a046230090407800e1df9f00b3
:108fd8000e48e900cdc622006c4423000c84e8004a
:108fe80023003700b24623001280fb000203200052
:108ff8000280b9006a0040006d007800000001009e
:109008001c417800e8406100030032009840780075
:109018005a99020000000000409c02000000000075
:1090280001c2b3001cc0600004003a0082c0b30053
:10903800984f110004003a000900370000c1b3003e
